{
	"mentoring/getbit.sol": {
		"babi": {
			"abi": [
				{
					"inputs": [
						{
							"internalType": "uint256",
							"name": "num",
							"type": "uint256"
						},
						{
							"internalType": "uint256",
							"name": "position",
							"type": "uint256"
						}
					],
					"name": "getBit",
					"outputs": [
						{
							"internalType": "uint8",
							"name": "",
							"type": "uint8"
						}
					],
					"stateMutability": "pure",
					"type": "function"
				}
			],
			"devdoc": {
				"kind": "dev",
				"methods": {},
				"version": 1
			},
			"evm": {
				"assembly": "    /* \"mentoring/getbit.sol\":60:478  contract babi{... */\n  mstore(0x40, 0x80)\n  callvalue\n  dup1\n  iszero\n  tag_1\n  jumpi\n  0x00\n  dup1\n  revert\ntag_1:\n  pop\n  dataSize(sub_0)\n  dup1\n  dataOffset(sub_0)\n  0x00\n  codecopy\n  0x00\n  return\nstop\n\nsub_0: assembly {\n        /* \"mentoring/getbit.sol\":60:478  contract babi{... */\n      mstore(0x40, 0x80)\n      callvalue\n      dup1\n      iszero\n      tag_1\n      jumpi\n      0x00\n      dup1\n      revert\n    tag_1:\n      pop\n      jumpi(tag_2, lt(calldatasize, 0x04))\n      shr(0xe0, calldataload(0x00))\n      dup1\n      0xd5050029\n      eq\n      tag_3\n      jumpi\n    tag_2:\n      0x00\n      dup1\n      revert\n        /* \"mentoring/getbit.sol\":80:475  function getBit(uint num, uint position) public pure returns (uint8) {... */\n    tag_3:\n      tag_4\n      0x04\n      dup1\n      calldatasize\n      sub\n      dup2\n      add\n      swap1\n      tag_5\n      swap2\n      swap1\n      tag_6\n      jump\t// in\n    tag_5:\n      tag_7\n      jump\t// in\n    tag_4:\n      mload(0x40)\n      tag_8\n      swap2\n      swap1\n      tag_9\n      jump\t// in\n    tag_8:\n      mload(0x40)\n      dup1\n      swap2\n      sub\n      swap1\n      return\n    tag_7:\n        /* \"mentoring/getbit.sol\":142:147  uint8 */\n      0x00\n        /* \"mentoring/getbit.sol\":178:179  0 */\n      dup1\n        /* \"mentoring/getbit.sol\":168:176  position */\n      dup3\n        /* \"mentoring/getbit.sol\":168:179  position!=0 */\n      sub\n        /* \"mentoring/getbit.sol\":160:194  require(position!=0, \"jangan nol\") */\n      tag_11\n      jumpi\n      mload(0x40)\n      0x08c379a000000000000000000000000000000000000000000000000000000000\n      dup2\n      mstore\n      0x04\n      add\n      tag_12\n      swap1\n      tag_13\n      jump\t// in\n    tag_12:\n      mload(0x40)\n      dup1\n      swap2\n      sub\n      swap1\n      revert\n    tag_11:\n        /* \"mentoring/getbit.sol\":205:225  uint[] memory binary */\n      0x00\n        /* \"mentoring/getbit.sol\":239:242  256 */\n      0x0100\n        /* \"mentoring/getbit.sol\":228:243  new uint[](256) */\n      0xffffffffffffffff\n      dup2\n      gt\n      iszero\n      tag_14\n      jumpi\n      tag_15\n      tag_16\n      jump\t// in\n    tag_15:\n    tag_14:\n      mload(0x40)\n      swap1\n      dup1\n      dup3\n      mstore\n      dup1\n      0x20\n      mul\n      0x20\n      add\n      dup3\n      add\n      0x40\n      mstore\n      dup1\n      iszero\n      tag_17\n      jumpi\n      dup2\n      0x20\n      add\n      0x20\n      dup3\n      mul\n      dup1\n      calldatasize\n      dup4\n      calldatacopy\n      dup1\n      dup3\n      add\n      swap2\n      pop\n      pop\n      swap1\n      pop\n    tag_17:\n      pop\n        /* \"mentoring/getbit.sol\":205:243  uint[] memory binary = new uint[](256) */\n      swap1\n      pop\n        /* \"mentoring/getbit.sol\":254:260  uint i */\n      0x00\n        /* \"mentoring/getbit.sol\":275:385  while(num>0){... */\n    tag_18:\n        /* \"mentoring/getbit.sol\":285:286  0 */\n      0x00\n        /* \"mentoring/getbit.sol\":281:284  num */\n      dup6\n        /* \"mentoring/getbit.sol\":281:286  num>0 */\n      gt\n        /* \"mentoring/getbit.sol\":275:385  while(num>0){... */\n      iszero\n      tag_19\n      jumpi\n        /* \"mentoring/getbit.sol\":320:321  2 */\n      0x02\n        /* \"mentoring/getbit.sol\":314:317  num */\n      dup6\n        /* \"mentoring/getbit.sol\":314:321  num % 2 */\n      tag_20\n      swap2\n      swap1\n      tag_21\n      jump\t// in\n    tag_20:\n        /* \"mentoring/getbit.sol\":302:308  binary */\n      dup3\n        /* \"mentoring/getbit.sol\":309:310  i */\n      dup3\n        /* \"mentoring/getbit.sol\":302:311  binary[i] */\n      dup2\n      mload\n      dup2\n      lt\n      tag_22\n      jumpi\n      tag_23\n      tag_24\n      jump\t// in\n    tag_23:\n    tag_22:\n      0x20\n      mul\n      0x20\n      add\n      add\n        /* \"mentoring/getbit.sol\":302:321  binary[i] = num % 2 */\n      dup2\n      dup2\n      mstore\n      pop\n      pop\n        /* \"mentoring/getbit.sol\":348:349  2 */\n      0x02\n        /* \"mentoring/getbit.sol\":342:345  num */\n      dup6\n        /* \"mentoring/getbit.sol\":342:349  num / 2 */\n      tag_25\n      swap2\n      swap1\n      tag_26\n      jump\t// in\n    tag_25:\n        /* \"mentoring/getbit.sol\":336:349  num = num / 2 */\n      swap5\n      pop\n        /* \"mentoring/getbit.sol\":372:373  1 */\n      0x01\n        /* \"mentoring/getbit.sol\":368:369  i */\n      dup2\n        /* \"mentoring/getbit.sol\":368:373  i + 1 */\n      tag_27\n      swap2\n      swap1\n      tag_28\n      jump\t// in\n    tag_27:\n        /* \"mentoring/getbit.sol\":364:373  i = i + 1 */\n      swap1\n      pop\n        /* \"mentoring/getbit.sol\":275:385  while(num>0){... */\n      jump(tag_18)\n    tag_19:\n        /* \"mentoring/getbit.sol\":412:413  i */\n      dup1\n        /* \"mentoring/getbit.sol\":403:411  position */\n      dup5\n        /* \"mentoring/getbit.sol\":403:413  position<i */\n      lt\n        /* \"mentoring/getbit.sol\":395:424  require(position<i, \"goblok\") */\n      tag_29\n      jumpi\n      mload(0x40)\n      0x08c379a000000000000000000000000000000000000000000000000000000000\n      dup2\n      mstore\n      0x04\n      add\n      tag_30\n      swap1\n      tag_31\n      jump\t// in\n    tag_30:\n      mload(0x40)\n      dup1\n      swap2\n      sub\n      swap1\n      revert\n    tag_29:\n        /* \"mentoring/getbit.sol\":448:454  binary */\n      dup2\n        /* \"mentoring/getbit.sol\":464:465  1 */\n      0x01\n        /* \"mentoring/getbit.sol\":455:463  position */\n      dup6\n        /* \"mentoring/getbit.sol\":455:465  position-1 */\n      tag_32\n      swap2\n      swap1\n      tag_33\n      jump\t// in\n    tag_32:\n        /* \"mentoring/getbit.sol\":448:466  binary[position-1] */\n      dup2\n      mload\n      dup2\n      lt\n      tag_34\n      jumpi\n      tag_35\n      tag_24\n      jump\t// in\n    tag_35:\n    tag_34:\n      0x20\n      mul\n      0x20\n      add\n      add\n      mload\n        /* \"mentoring/getbit.sol\":435:467  return uint8(binary[position-1]) */\n      swap3\n      pop\n      pop\n      pop\n        /* \"mentoring/getbit.sol\":80:475  function getBit(uint num, uint position) public pure returns (uint8) {... */\n      swap3\n      swap2\n      pop\n      pop\n      jump\t// out\n        /* \"#utility.yul\":88:205   */\n    tag_37:\n        /* \"#utility.yul\":197:198   */\n      0x00\n        /* \"#utility.yul\":194:195   */\n      dup1\n        /* \"#utility.yul\":187:199   */\n      revert\n        /* \"#utility.yul\":334:411   */\n    tag_39:\n        /* \"#utility.yul\":371:378   */\n      0x00\n        /* \"#utility.yul\":400:405   */\n      dup2\n        /* \"#utility.yul\":389:405   */\n      swap1\n      pop\n        /* \"#utility.yul\":334:411   */\n      swap2\n      swap1\n      pop\n      jump\t// out\n        /* \"#utility.yul\":417:539   */\n    tag_40:\n        /* \"#utility.yul\":490:514   */\n      tag_57\n        /* \"#utility.yul\":508:513   */\n      dup2\n        /* \"#utility.yul\":490:514   */\n      tag_39\n      jump\t// in\n    tag_57:\n        /* \"#utility.yul\":483:488   */\n      dup2\n        /* \"#utility.yul\":480:515   */\n      eq\n        /* \"#utility.yul\":470:533   */\n      tag_58\n      jumpi\n        /* \"#utility.yul\":529:530   */\n      0x00\n        /* \"#utility.yul\":526:527   */\n      dup1\n        /* \"#utility.yul\":519:531   */\n      revert\n        /* \"#utility.yul\":470:533   */\n    tag_58:\n        /* \"#utility.yul\":417:539   */\n      pop\n      jump\t// out\n        /* \"#utility.yul\":545:684   */\n    tag_41:\n        /* \"#utility.yul\":591:596   */\n      0x00\n        /* \"#utility.yul\":629:635   */\n      dup2\n        /* \"#utility.yul\":616:636   */\n      calldataload\n        /* \"#utility.yul\":607:636   */\n      swap1\n      pop\n        /* \"#utility.yul\":645:678   */\n      tag_60\n        /* \"#utility.yul\":672:677   */\n      dup2\n        /* \"#utility.yul\":645:678   */\n      tag_40\n      jump\t// in\n    tag_60:\n        /* \"#utility.yul\":545:684   */\n      swap3\n      swap2\n      pop\n      pop\n      jump\t// out\n        /* \"#utility.yul\":690:1164   */\n    tag_6:\n        /* \"#utility.yul\":758:764   */\n      0x00\n        /* \"#utility.yul\":766:772   */\n      dup1\n        /* \"#utility.yul\":815:817   */\n      0x40\n        /* \"#utility.yul\":803:812   */\n      dup4\n        /* \"#utility.yul\":794:801   */\n      dup6\n        /* \"#utility.yul\":790:813   */\n      sub\n        /* \"#utility.yul\":786:818   */\n      slt\n        /* \"#utility.yul\":783:902   */\n      iszero\n      tag_62\n      jumpi\n        /* \"#utility.yul\":821:900   */\n      tag_63\n      tag_37\n      jump\t// in\n    tag_63:\n        /* \"#utility.yul\":783:902   */\n    tag_62:\n        /* \"#utility.yul\":941:942   */\n      0x00\n        /* \"#utility.yul\":966:1019   */\n      tag_64\n        /* \"#utility.yul\":1011:1018   */\n      dup6\n        /* \"#utility.yul\":1002:1008   */\n      dup3\n        /* \"#utility.yul\":991:1000   */\n      dup7\n        /* \"#utility.yul\":987:1009   */\n      add\n        /* \"#utility.yul\":966:1019   */\n      tag_41\n      jump\t// in\n    tag_64:\n        /* \"#utility.yul\":956:1019   */\n      swap3\n      pop\n        /* \"#utility.yul\":912:1029   */\n      pop\n        /* \"#utility.yul\":1068:1070   */\n      0x20\n        /* \"#utility.yul\":1094:1147   */\n      tag_65\n        /* \"#utility.yul\":1139:1146   */\n      dup6\n        /* \"#utility.yul\":1130:1136   */\n      dup3\n        /* \"#utility.yul\":1119:1128   */\n      dup7\n        /* \"#utility.yul\":1115:1137   */\n      add\n        /* \"#utility.yul\":1094:1147   */\n      tag_41\n      jump\t// in\n    tag_65:\n        /* \"#utility.yul\":1084:1147   */\n      swap2\n      pop\n        /* \"#utility.yul\":1039:1157   */\n      pop\n        /* \"#utility.yul\":690:1164   */\n      swap3\n      pop\n      swap3\n      swap1\n      pop\n      jump\t// out\n        /* \"#utility.yul\":1170:1256   */\n    tag_42:\n        /* \"#utility.yul\":1205:1212   */\n      0x00\n        /* \"#utility.yul\":1245:1249   */\n      0xff\n        /* \"#utility.yul\":1238:1243   */\n      dup3\n        /* \"#utility.yul\":1234:1250   */\n      and\n        /* \"#utility.yul\":1223:1250   */\n      swap1\n      pop\n        /* \"#utility.yul\":1170:1256   */\n      swap2\n      swap1\n      pop\n      jump\t// out\n        /* \"#utility.yul\":1262:1374   */\n    tag_43:\n        /* \"#utility.yul\":1345:1367   */\n      tag_68\n        /* \"#utility.yul\":1361:1366   */\n      dup2\n        /* \"#utility.yul\":1345:1367   */\n      tag_42\n      jump\t// in\n    tag_68:\n        /* \"#utility.yul\":1340:1343   */\n      dup3\n        /* \"#utility.yul\":1333:1368   */\n      mstore\n        /* \"#utility.yul\":1262:1374   */\n      pop\n      pop\n      jump\t// out\n        /* \"#utility.yul\":1380:1594   */\n    tag_9:\n        /* \"#utility.yul\":1469:1473   */\n      0x00\n        /* \"#utility.yul\":1507:1509   */\n      0x20\n        /* \"#utility.yul\":1496:1505   */\n      dup3\n        /* \"#utility.yul\":1492:1510   */\n      add\n        /* \"#utility.yul\":1484:1510   */\n      swap1\n      pop\n        /* \"#utility.yul\":1520:1587   */\n      tag_70\n        /* \"#utility.yul\":1584:1585   */\n      0x00\n        /* \"#utility.yul\":1573:1582   */\n      dup4\n        /* \"#utility.yul\":1569:1586   */\n      add\n        /* \"#utility.yul\":1560:1566   */\n      dup5\n        /* \"#utility.yul\":1520:1587   */\n      tag_43\n      jump\t// in\n    tag_70:\n        /* \"#utility.yul\":1380:1594   */\n      swap3\n      swap2\n      pop\n      pop\n      jump\t// out\n        /* \"#utility.yul\":1600:1769   */\n    tag_44:\n        /* \"#utility.yul\":1684:1695   */\n      0x00\n        /* \"#utility.yul\":1718:1724   */\n      dup3\n        /* \"#utility.yul\":1713:1716   */\n      dup3\n        /* \"#utility.yul\":1706:1725   */\n      mstore\n        /* \"#utility.yul\":1758:1762   */\n      0x20\n        /* \"#utility.yul\":1753:1756   */\n      dup3\n        /* \"#utility.yul\":1749:1763   */\n      add\n        /* \"#utility.yul\":1734:1763   */\n      swap1\n      pop\n        /* \"#utility.yul\":1600:1769   */\n      swap3\n      swap2\n      pop\n      pop\n      jump\t// out\n        /* \"#utility.yul\":1775:1935   */\n    tag_45:\n        /* \"#utility.yul\":1915:1927   */\n      0x6a616e67616e206e6f6c00000000000000000000000000000000000000000000\n        /* \"#utility.yul\":1911:1912   */\n      0x00\n        /* \"#utility.yul\":1903:1909   */\n      dup3\n        /* \"#utility.yul\":1899:1913   */\n      add\n        /* \"#utility.yul\":1892:1928   */\n      mstore\n        /* \"#utility.yul\":1775:1935   */\n      pop\n      jump\t// out\n        /* \"#utility.yul\":1941:2307   */\n    tag_46:\n        /* \"#utility.yul\":2083:2086   */\n      0x00\n        /* \"#utility.yul\":2104:2171   */\n      tag_74\n        /* \"#utility.yul\":2168:2170   */\n      0x0a\n        /* \"#utility.yul\":2163:2166   */\n      dup4\n        /* \"#utility.yul\":2104:2171   */\n      tag_44\n      jump\t// in\n    tag_74:\n        /* \"#utility.yul\":2097:2171   */\n      swap2\n      pop\n        /* \"#utility.yul\":2180:2273   */\n      tag_75\n        /* \"#utility.yul\":2269:2272   */\n      dup3\n        /* \"#utility.yul\":2180:2273   */\n      tag_45\n      jump\t// in\n    tag_75:\n        /* \"#utility.yul\":2298:2300   */\n      0x20\n        /* \"#utility.yul\":2293:2296   */\n      dup3\n        /* \"#utility.yul\":2289:2301   */\n      add\n        /* \"#utility.yul\":2282:2301   */\n      swap1\n      pop\n        /* \"#utility.yul\":1941:2307   */\n      swap2\n      swap1\n      pop\n      jump\t// out\n        /* \"#utility.yul\":2313:2732   */\n    tag_13:\n        /* \"#utility.yul\":2479:2483   */\n      0x00\n        /* \"#utility.yul\":2517:2519   */\n      0x20\n        /* \"#utility.yul\":2506:2515   */\n      dup3\n        /* \"#utility.yul\":2502:2520   */\n      add\n        /* \"#utility.yul\":2494:2520   */\n      swap1\n      pop\n        /* \"#utility.yul\":2566:2575   */\n      dup2\n        /* \"#utility.yul\":2560:2564   */\n      dup2\n        /* \"#utility.yul\":2556:2576   */\n      sub\n        /* \"#utility.yul\":2552:2553   */\n      0x00\n        /* \"#utility.yul\":2541:2550   */\n      dup4\n        /* \"#utility.yul\":2537:2554   */\n      add\n        /* \"#utility.yul\":2530:2577   */\n      mstore\n        /* \"#utility.yul\":2594:2725   */\n      tag_77\n        /* \"#utility.yul\":2720:2724   */\n      dup2\n        /* \"#utility.yul\":2594:2725   */\n      tag_46\n      jump\t// in\n    tag_77:\n        /* \"#utility.yul\":2586:2725   */\n      swap1\n      pop\n        /* \"#utility.yul\":2313:2732   */\n      swap2\n      swap1\n      pop\n      jump\t// out\n        /* \"#utility.yul\":2738:2918   */\n    tag_16:\n        /* \"#utility.yul\":2786:2863   */\n      0x4e487b7100000000000000000000000000000000000000000000000000000000\n        /* \"#utility.yul\":2783:2784   */\n      0x00\n        /* \"#utility.yul\":2776:2864   */\n      mstore\n        /* \"#utility.yul\":2883:2887   */\n      0x41\n        /* \"#utility.yul\":2880:2881   */\n      0x04\n        /* \"#utility.yul\":2873:2888   */\n      mstore\n        /* \"#utility.yul\":2907:2911   */\n      0x24\n        /* \"#utility.yul\":2904:2905   */\n      0x00\n        /* \"#utility.yul\":2897:2912   */\n      revert\n        /* \"#utility.yul\":2924:3104   */\n    tag_47:\n        /* \"#utility.yul\":2972:3049   */\n      0x4e487b7100000000000000000000000000000000000000000000000000000000\n        /* \"#utility.yul\":2969:2970   */\n      0x00\n        /* \"#utility.yul\":2962:3050   */\n      mstore\n        /* \"#utility.yul\":3069:3073   */\n      0x12\n        /* \"#utility.yul\":3066:3067   */\n      0x04\n        /* \"#utility.yul\":3059:3074   */\n      mstore\n        /* \"#utility.yul\":3093:3097   */\n      0x24\n        /* \"#utility.yul\":3090:3091   */\n      0x00\n        /* \"#utility.yul\":3083:3098   */\n      revert\n        /* \"#utility.yul\":3110:3286   */\n    tag_21:\n        /* \"#utility.yul\":3142:3143   */\n      0x00\n        /* \"#utility.yul\":3159:3179   */\n      tag_81\n        /* \"#utility.yul\":3177:3178   */\n      dup3\n        /* \"#utility.yul\":3159:3179   */\n      tag_39\n      jump\t// in\n    tag_81:\n        /* \"#utility.yul\":3154:3179   */\n      swap2\n      pop\n        /* \"#utility.yul\":3193:3213   */\n      tag_82\n        /* \"#utility.yul\":3211:3212   */\n      dup4\n        /* \"#utility.yul\":3193:3213   */\n      tag_39\n      jump\t// in\n    tag_82:\n        /* \"#utility.yul\":3188:3213   */\n      swap3\n      pop\n        /* \"#utility.yul\":3232:3233   */\n      dup3\n        /* \"#utility.yul\":3222:3257   */\n      tag_83\n      jumpi\n        /* \"#utility.yul\":3237:3255   */\n      tag_84\n      tag_47\n      jump\t// in\n    tag_84:\n        /* \"#utility.yul\":3222:3257   */\n    tag_83:\n        /* \"#utility.yul\":3278:3279   */\n      dup3\n        /* \"#utility.yul\":3275:3276   */\n      dup3\n        /* \"#utility.yul\":3271:3280   */\n      mod\n        /* \"#utility.yul\":3266:3280   */\n      swap1\n      pop\n        /* \"#utility.yul\":3110:3286   */\n      swap3\n      swap2\n      pop\n      pop\n      jump\t// out\n        /* \"#utility.yul\":3292:3472   */\n    tag_24:\n        /* \"#utility.yul\":3340:3417   */\n      0x4e487b7100000000000000000000000000000000000000000000000000000000\n        /* \"#utility.yul\":3337:3338   */\n      0x00\n        /* \"#utility.yul\":3330:3418   */\n      mstore\n        /* \"#utility.yul\":3437:3441   */\n      0x32\n        /* \"#utility.yul\":3434:3435   */\n      0x04\n        /* \"#utility.yul\":3427:3442   */\n      mstore\n        /* \"#utility.yul\":3461:3465   */\n      0x24\n        /* \"#utility.yul\":3458:3459   */\n      0x00\n        /* \"#utility.yul\":3451:3466   */\n      revert\n        /* \"#utility.yul\":3478:3658   */\n    tag_48:\n        /* \"#utility.yul\":3526:3603   */\n      0x4e487b7100000000000000000000000000000000000000000000000000000000\n        /* \"#utility.yul\":3523:3524   */\n      0x00\n        /* \"#utility.yul\":3516:3604   */\n      mstore\n        /* \"#utility.yul\":3623:3627   */\n      0x11\n        /* \"#utility.yul\":3620:3621   */\n      0x04\n        /* \"#utility.yul\":3613:3628   */\n      mstore\n        /* \"#utility.yul\":3647:3651   */\n      0x24\n        /* \"#utility.yul\":3644:3645   */\n      0x00\n        /* \"#utility.yul\":3637:3652   */\n      revert\n        /* \"#utility.yul\":3664:3849   */\n    tag_26:\n        /* \"#utility.yul\":3704:3705   */\n      0x00\n        /* \"#utility.yul\":3721:3741   */\n      tag_88\n        /* \"#utility.yul\":3739:3740   */\n      dup3\n        /* \"#utility.yul\":3721:3741   */\n      tag_39\n      jump\t// in\n    tag_88:\n        /* \"#utility.yul\":3716:3741   */\n      swap2\n      pop\n        /* \"#utility.yul\":3755:3775   */\n      tag_89\n        /* \"#utility.yul\":3773:3774   */\n      dup4\n        /* \"#utility.yul\":3755:3775   */\n      tag_39\n      jump\t// in\n    tag_89:\n        /* \"#utility.yul\":3750:3775   */\n      swap3\n      pop\n        /* \"#utility.yul\":3794:3795   */\n      dup3\n        /* \"#utility.yul\":3784:3819   */\n      tag_90\n      jumpi\n        /* \"#utility.yul\":3799:3817   */\n      tag_91\n      tag_47\n      jump\t// in\n    tag_91:\n        /* \"#utility.yul\":3784:3819   */\n    tag_90:\n        /* \"#utility.yul\":3841:3842   */\n      dup3\n        /* \"#utility.yul\":3838:3839   */\n      dup3\n        /* \"#utility.yul\":3834:3843   */\n      div\n        /* \"#utility.yul\":3829:3843   */\n      swap1\n      pop\n        /* \"#utility.yul\":3664:3849   */\n      swap3\n      swap2\n      pop\n      pop\n      jump\t// out\n        /* \"#utility.yul\":3855:4046   */\n    tag_28:\n        /* \"#utility.yul\":3895:3898   */\n      0x00\n        /* \"#utility.yul\":3914:3934   */\n      tag_93\n        /* \"#utility.yul\":3932:3933   */\n      dup3\n        /* \"#utility.yul\":3914:3934   */\n      tag_39\n      jump\t// in\n    tag_93:\n        /* \"#utility.yul\":3909:3934   */\n      swap2\n      pop\n        /* \"#utility.yul\":3948:3968   */\n      tag_94\n        /* \"#utility.yul\":3966:3967   */\n      dup4\n        /* \"#utility.yul\":3948:3968   */\n      tag_39\n      jump\t// in\n    tag_94:\n        /* \"#utility.yul\":3943:3968   */\n      swap3\n      pop\n        /* \"#utility.yul\":3991:3992   */\n      dup3\n        /* \"#utility.yul\":3988:3989   */\n      dup3\n        /* \"#utility.yul\":3984:3993   */\n      add\n        /* \"#utility.yul\":3977:3993   */\n      swap1\n      pop\n        /* \"#utility.yul\":4012:4015   */\n      dup1\n        /* \"#utility.yul\":4009:4010   */\n      dup3\n        /* \"#utility.yul\":4006:4016   */\n      gt\n        /* \"#utility.yul\":4003:4039   */\n      iszero\n      tag_95\n      jumpi\n        /* \"#utility.yul\":4019:4037   */\n      tag_96\n      tag_48\n      jump\t// in\n    tag_96:\n        /* \"#utility.yul\":4003:4039   */\n    tag_95:\n        /* \"#utility.yul\":3855:4046   */\n      swap3\n      swap2\n      pop\n      pop\n      jump\t// out\n        /* \"#utility.yul\":4052:4208   */\n    tag_49:\n        /* \"#utility.yul\":4192:4200   */\n      0x676f626c6f6b0000000000000000000000000000000000000000000000000000\n        /* \"#utility.yul\":4188:4189   */\n      0x00\n        /* \"#utility.yul\":4180:4186   */\n      dup3\n        /* \"#utility.yul\":4176:4190   */\n      add\n        /* \"#utility.yul\":4169:4201   */\n      mstore\n        /* \"#utility.yul\":4052:4208   */\n      pop\n      jump\t// out\n        /* \"#utility.yul\":4214:4579   */\n    tag_50:\n        /* \"#utility.yul\":4356:4359   */\n      0x00\n        /* \"#utility.yul\":4377:4443   */\n      tag_99\n        /* \"#utility.yul\":4441:4442   */\n      0x06\n        /* \"#utility.yul\":4436:4439   */\n      dup4\n        /* \"#utility.yul\":4377:4443   */\n      tag_44\n      jump\t// in\n    tag_99:\n        /* \"#utility.yul\":4370:4443   */\n      swap2\n      pop\n        /* \"#utility.yul\":4452:4545   */\n      tag_100\n        /* \"#utility.yul\":4541:4544   */\n      dup3\n        /* \"#utility.yul\":4452:4545   */\n      tag_49\n      jump\t// in\n    tag_100:\n        /* \"#utility.yul\":4570:4572   */\n      0x20\n        /* \"#utility.yul\":4565:4568   */\n      dup3\n        /* \"#utility.yul\":4561:4573   */\n      add\n        /* \"#utility.yul\":4554:4573   */\n      swap1\n      pop\n        /* \"#utility.yul\":4214:4579   */\n      swap2\n      swap1\n      pop\n      jump\t// out\n        /* \"#utility.yul\":4585:5004   */\n    tag_31:\n        /* \"#utility.yul\":4751:4755   */\n      0x00\n        /* \"#utility.yul\":4789:4791   */\n      0x20\n        /* \"#utility.yul\":4778:4787   */\n      dup3\n        /* \"#utility.yul\":4774:4792   */\n      add\n        /* \"#utility.yul\":4766:4792   */\n      swap1\n      pop\n        /* \"#utility.yul\":4838:4847   */\n      dup2\n        /* \"#utility.yul\":4832:4836   */\n      dup2\n        /* \"#utility.yul\":4828:4848   */\n      sub\n        /* \"#utility.yul\":4824:4825   */\n      0x00\n        /* \"#utility.yul\":4813:4822   */\n      dup4\n        /* \"#utility.yul\":4809:4826   */\n      add\n        /* \"#utility.yul\":4802:4849   */\n      mstore\n        /* \"#utility.yul\":4866:4997   */\n      tag_102\n        /* \"#utility.yul\":4992:4996   */\n      dup2\n        /* \"#utility.yul\":4866:4997   */\n      tag_50\n      jump\t// in\n    tag_102:\n        /* \"#utility.yul\":4858:4997   */\n      swap1\n      pop\n        /* \"#utility.yul\":4585:5004   */\n      swap2\n      swap1\n      pop\n      jump\t// out\n        /* \"#utility.yul\":5010:5204   */\n    tag_33:\n        /* \"#utility.yul\":5050:5054   */\n      0x00\n        /* \"#utility.yul\":5070:5090   */\n      tag_104\n        /* \"#utility.yul\":5088:5089   */\n      dup3\n        /* \"#utility.yul\":5070:5090   */\n      tag_39\n      jump\t// in\n    tag_104:\n        /* \"#utility.yul\":5065:5090   */\n      swap2\n      pop\n        /* \"#utility.yul\":5104:5124   */\n      tag_105\n        /* \"#utility.yul\":5122:5123   */\n      dup4\n        /* \"#utility.yul\":5104:5124   */\n      tag_39\n      jump\t// in\n    tag_105:\n        /* \"#utility.yul\":5099:5124   */\n      swap3\n      pop\n        /* \"#utility.yul\":5148:5149   */\n      dup3\n        /* \"#utility.yul\":5145:5146   */\n      dup3\n        /* \"#utility.yul\":5141:5150   */\n      sub\n        /* \"#utility.yul\":5133:5150   */\n      swap1\n      pop\n        /* \"#utility.yul\":5172:5173   */\n      dup2\n        /* \"#utility.yul\":5166:5170   */\n      dup2\n        /* \"#utility.yul\":5163:5174   */\n      gt\n        /* \"#utility.yul\":5160:5197   */\n      iszero\n      tag_106\n      jumpi\n        /* \"#utility.yul\":5177:5195   */\n      tag_107\n      tag_48\n      jump\t// in\n    tag_107:\n        /* \"#utility.yul\":5160:5197   */\n    tag_106:\n        /* \"#utility.yul\":5010:5204   */\n      swap3\n      swap2\n      pop\n      pop\n      jump\t// out\n\n    auxdata: 0xa26469706673582212209af2502f0053bb02b3b26688b4eca6cfb0e6462c86e6dc6350c7d54f6bbc82fc64736f6c63430008150033\n}\n",
				"bytecode": {
					"linkReferences": {},
					"object": "608060405234801561000f575f80fd5b506104f38061001d5f395ff3fe608060405234801561000f575f80fd5b5060043610610029575f3560e01c8063d50500291461002d575b5f80fd5b610047600480360381019061004291906101f1565b61005d565b604051610054919061024a565b60405180910390f35b5f8082036100a0576040517f08c379a0000000000000000000000000000000000000000000000000000000008152600401610097906102bd565b60405180910390fd5b5f61010067ffffffffffffffff8111156100bd576100bc6102db565b5b6040519080825280602002602001820160405280156100eb5781602001602082028036833780820191505090505b5090505f5b5f851115610147576002856101059190610335565b82828151811061011857610117610365565b5b60200260200101818152505060028561013191906103bf565b945060018161014091906103ef565b90506100f0565b808410610189576040517f08c379a00000000000000000000000000000000000000000000000000000000081526004016101809061046c565b60405180910390fd5b81600185610197919061048a565b815181106101a8576101a7610365565b5b60200260200101519250505092915050565b5f80fd5b5f819050919050565b6101d0816101be565b81146101da575f80fd5b50565b5f813590506101eb816101c7565b92915050565b5f8060408385031215610207576102066101ba565b5b5f610214858286016101dd565b9250506020610225858286016101dd565b9150509250929050565b5f60ff82169050919050565b6102448161022f565b82525050565b5f60208201905061025d5f83018461023b565b92915050565b5f82825260208201905092915050565b7f6a616e67616e206e6f6c000000000000000000000000000000000000000000005f82015250565b5f6102a7600a83610263565b91506102b282610273565b602082019050919050565b5f6020820190508181035f8301526102d48161029b565b9050919050565b7f4e487b71000000000000000000000000000000000000000000000000000000005f52604160045260245ffd5b7f4e487b71000000000000000000000000000000000000000000000000000000005f52601260045260245ffd5b5f61033f826101be565b915061034a836101be565b92508261035a57610359610308565b5b828206905092915050565b7f4e487b71000000000000000000000000000000000000000000000000000000005f52603260045260245ffd5b7f4e487b71000000000000000000000000000000000000000000000000000000005f52601160045260245ffd5b5f6103c9826101be565b91506103d4836101be565b9250826103e4576103e3610308565b5b828204905092915050565b5f6103f9826101be565b9150610404836101be565b925082820190508082111561041c5761041b610392565b5b92915050565b7f676f626c6f6b00000000000000000000000000000000000000000000000000005f82015250565b5f610456600683610263565b915061046182610422565b602082019050919050565b5f6020820190508181035f8301526104838161044a565b9050919050565b5f610494826101be565b915061049f836101be565b92508282039050818111156104b7576104b6610392565b5b9291505056fea26469706673582212209af2502f0053bb02b3b26688b4eca6cfb0e6462c86e6dc6350c7d54f6bbc82fc64736f6c63430008150033",
					"opcodes": "PUSH1 0x80 PUSH1 0x40 MSTORE CALLVALUE DUP1 ISZERO PUSH2 0xF JUMPI PUSH0 DUP1 REVERT JUMPDEST POP PUSH2 0x4F3 DUP1 PUSH2 0x1D PUSH0 CODECOPY PUSH0 RETURN INVALID PUSH1 0x80 PUSH1 0x40 MSTORE CALLVALUE DUP1 ISZERO PUSH2 0xF JUMPI PUSH0 DUP1 REVERT JUMPDEST POP PUSH1 0x4 CALLDATASIZE LT PUSH2 0x29 JUMPI PUSH0 CALLDATALOAD PUSH1 0xE0 SHR DUP1 PUSH4 0xD5050029 EQ PUSH2 0x2D JUMPI JUMPDEST PUSH0 DUP1 REVERT JUMPDEST PUSH2 0x47 PUSH1 0x4 DUP1 CALLDATASIZE SUB DUP2 ADD SWAP1 PUSH2 0x42 SWAP2 SWAP1 PUSH2 0x1F1 JUMP JUMPDEST PUSH2 0x5D JUMP JUMPDEST PUSH1 0x40 MLOAD PUSH2 0x54 SWAP2 SWAP1 PUSH2 0x24A JUMP JUMPDEST PUSH1 0x40 MLOAD DUP1 SWAP2 SUB SWAP1 RETURN JUMPDEST PUSH0 DUP1 DUP3 SUB PUSH2 0xA0 JUMPI PUSH1 0x40 MLOAD PUSH32 0x8C379A000000000000000000000000000000000000000000000000000000000 DUP2 MSTORE PUSH1 0x4 ADD PUSH2 0x97 SWAP1 PUSH2 0x2BD JUMP JUMPDEST PUSH1 0x40 MLOAD DUP1 SWAP2 SUB SWAP1 REVERT JUMPDEST PUSH0 PUSH2 0x100 PUSH8 0xFFFFFFFFFFFFFFFF DUP2 GT ISZERO PUSH2 0xBD JUMPI PUSH2 0xBC PUSH2 0x2DB JUMP JUMPDEST JUMPDEST PUSH1 0x40 MLOAD SWAP1 DUP1 DUP3 MSTORE DUP1 PUSH1 0x20 MUL PUSH1 0x20 ADD DUP3 ADD PUSH1 0x40 MSTORE DUP1 ISZERO PUSH2 0xEB JUMPI DUP2 PUSH1 0x20 ADD PUSH1 0x20 DUP3 MUL DUP1 CALLDATASIZE DUP4 CALLDATACOPY DUP1 DUP3 ADD SWAP2 POP POP SWAP1 POP JUMPDEST POP SWAP1 POP PUSH0 JUMPDEST PUSH0 DUP6 GT ISZERO PUSH2 0x147 JUMPI PUSH1 0x2 DUP6 PUSH2 0x105 SWAP2 SWAP1 PUSH2 0x335 JUMP JUMPDEST DUP3 DUP3 DUP2 MLOAD DUP2 LT PUSH2 0x118 JUMPI PUSH2 0x117 PUSH2 0x365 JUMP JUMPDEST JUMPDEST PUSH1 0x20 MUL PUSH1 0x20 ADD ADD DUP2 DUP2 MSTORE POP POP PUSH1 0x2 DUP6 PUSH2 0x131 SWAP2 SWAP1 PUSH2 0x3BF JUMP JUMPDEST SWAP5 POP PUSH1 0x1 DUP2 PUSH2 0x140 SWAP2 SWAP1 PUSH2 0x3EF JUMP JUMPDEST SWAP1 POP PUSH2 0xF0 JUMP JUMPDEST DUP1 DUP5 LT PUSH2 0x189 JUMPI PUSH1 0x40 MLOAD PUSH32 0x8C379A000000000000000000000000000000000000000000000000000000000 DUP2 MSTORE PUSH1 0x4 ADD PUSH2 0x180 SWAP1 PUSH2 0x46C JUMP JUMPDEST PUSH1 0x40 MLOAD DUP1 SWAP2 SUB SWAP1 REVERT JUMPDEST DUP2 PUSH1 0x1 DUP6 PUSH2 0x197 SWAP2 SWAP1 PUSH2 0x48A JUMP JUMPDEST DUP2 MLOAD DUP2 LT PUSH2 0x1A8 JUMPI PUSH2 0x1A7 PUSH2 0x365 JUMP JUMPDEST JUMPDEST PUSH1 0x20 MUL PUSH1 0x20 ADD ADD MLOAD SWAP3 POP POP POP SWAP3 SWAP2 POP POP JUMP JUMPDEST PUSH0 DUP1 REVERT JUMPDEST PUSH0 DUP2 SWAP1 POP SWAP2 SWAP1 POP JUMP JUMPDEST PUSH2 0x1D0 DUP2 PUSH2 0x1BE JUMP JUMPDEST DUP2 EQ PUSH2 0x1DA JUMPI PUSH0 DUP1 REVERT JUMPDEST POP JUMP JUMPDEST PUSH0 DUP2 CALLDATALOAD SWAP1 POP PUSH2 0x1EB DUP2 PUSH2 0x1C7 JUMP JUMPDEST SWAP3 SWAP2 POP POP JUMP JUMPDEST PUSH0 DUP1 PUSH1 0x40 DUP4 DUP6 SUB SLT ISZERO PUSH2 0x207 JUMPI PUSH2 0x206 PUSH2 0x1BA JUMP JUMPDEST JUMPDEST PUSH0 PUSH2 0x214 DUP6 DUP3 DUP7 ADD PUSH2 0x1DD JUMP JUMPDEST SWAP3 POP POP PUSH1 0x20 PUSH2 0x225 DUP6 DUP3 DUP7 ADD PUSH2 0x1DD JUMP JUMPDEST SWAP2 POP POP SWAP3 POP SWAP3 SWAP1 POP JUMP JUMPDEST PUSH0 PUSH1 0xFF DUP3 AND SWAP1 POP SWAP2 SWAP1 POP JUMP JUMPDEST PUSH2 0x244 DUP2 PUSH2 0x22F JUMP JUMPDEST DUP3 MSTORE POP POP JUMP JUMPDEST PUSH0 PUSH1 0x20 DUP3 ADD SWAP1 POP PUSH2 0x25D PUSH0 DUP4 ADD DUP5 PUSH2 0x23B JUMP JUMPDEST SWAP3 SWAP2 POP POP JUMP JUMPDEST PUSH0 DUP3 DUP3 MSTORE PUSH1 0x20 DUP3 ADD SWAP1 POP SWAP3 SWAP2 POP POP JUMP JUMPDEST PUSH32 0x6A616E67616E206E6F6C00000000000000000000000000000000000000000000 PUSH0 DUP3 ADD MSTORE POP JUMP JUMPDEST PUSH0 PUSH2 0x2A7 PUSH1 0xA DUP4 PUSH2 0x263 JUMP JUMPDEST SWAP2 POP PUSH2 0x2B2 DUP3 PUSH2 0x273 JUMP JUMPDEST PUSH1 0x20 DUP3 ADD SWAP1 POP SWAP2 SWAP1 POP JUMP JUMPDEST PUSH0 PUSH1 0x20 DUP3 ADD SWAP1 POP DUP2 DUP2 SUB PUSH0 DUP4 ADD MSTORE PUSH2 0x2D4 DUP2 PUSH2 0x29B JUMP JUMPDEST SWAP1 POP SWAP2 SWAP1 POP JUMP JUMPDEST PUSH32 0x4E487B7100000000000000000000000000000000000000000000000000000000 PUSH0 MSTORE PUSH1 0x41 PUSH1 0x4 MSTORE PUSH1 0x24 PUSH0 REVERT JUMPDEST PUSH32 0x4E487B7100000000000000000000000000000000000000000000000000000000 PUSH0 MSTORE PUSH1 0x12 PUSH1 0x4 MSTORE PUSH1 0x24 PUSH0 REVERT JUMPDEST PUSH0 PUSH2 0x33F DUP3 PUSH2 0x1BE JUMP JUMPDEST SWAP2 POP PUSH2 0x34A DUP4 PUSH2 0x1BE JUMP JUMPDEST SWAP3 POP DUP3 PUSH2 0x35A JUMPI PUSH2 0x359 PUSH2 0x308 JUMP JUMPDEST JUMPDEST DUP3 DUP3 MOD SWAP1 POP SWAP3 SWAP2 POP POP JUMP JUMPDEST PUSH32 0x4E487B7100000000000000000000000000000000000000000000000000000000 PUSH0 MSTORE PUSH1 0x32 PUSH1 0x4 MSTORE PUSH1 0x24 PUSH0 REVERT JUMPDEST PUSH32 0x4E487B7100000000000000000000000000000000000000000000000000000000 PUSH0 MSTORE PUSH1 0x11 PUSH1 0x4 MSTORE PUSH1 0x24 PUSH0 REVERT JUMPDEST PUSH0 PUSH2 0x3C9 DUP3 PUSH2 0x1BE JUMP JUMPDEST SWAP2 POP PUSH2 0x3D4 DUP4 PUSH2 0x1BE JUMP JUMPDEST SWAP3 POP DUP3 PUSH2 0x3E4 JUMPI PUSH2 0x3E3 PUSH2 0x308 JUMP JUMPDEST JUMPDEST DUP3 DUP3 DIV SWAP1 POP SWAP3 SWAP2 POP POP JUMP JUMPDEST PUSH0 PUSH2 0x3F9 DUP3 PUSH2 0x1BE JUMP JUMPDEST SWAP2 POP PUSH2 0x404 DUP4 PUSH2 0x1BE JUMP JUMPDEST SWAP3 POP DUP3 DUP3 ADD SWAP1 POP DUP1 DUP3 GT ISZERO PUSH2 0x41C JUMPI PUSH2 0x41B PUSH2 0x392 JUMP JUMPDEST JUMPDEST SWAP3 SWAP2 POP POP JUMP JUMPDEST PUSH32 0x676F626C6F6B0000000000000000000000000000000000000000000000000000 PUSH0 DUP3 ADD MSTORE POP JUMP JUMPDEST PUSH0 PUSH2 0x456 PUSH1 0x6 DUP4 PUSH2 0x263 JUMP JUMPDEST SWAP2 POP PUSH2 0x461 DUP3 PUSH2 0x422 JUMP JUMPDEST PUSH1 0x20 DUP3 ADD SWAP1 POP SWAP2 SWAP1 POP JUMP JUMPDEST PUSH0 PUSH1 0x20 DUP3 ADD SWAP1 POP DUP2 DUP2 SUB PUSH0 DUP4 ADD MSTORE PUSH2 0x483 DUP2 PUSH2 0x44A JUMP JUMPDEST SWAP1 POP SWAP2 SWAP1 POP JUMP JUMPDEST PUSH0 PUSH2 0x494 DUP3 PUSH2 0x1BE JUMP JUMPDEST SWAP2 POP PUSH2 0x49F DUP4 PUSH2 0x1BE JUMP JUMPDEST SWAP3 POP DUP3 DUP3 SUB SWAP1 POP DUP2 DUP2 GT ISZERO PUSH2 0x4B7 JUMPI PUSH2 0x4B6 PUSH2 0x392 JUMP JUMPDEST JUMPDEST SWAP3 SWAP2 POP POP JUMP INVALID LOG2 PUSH5 0x6970667358 0x22 SLT KECCAK256 SWAP11 CALLCODE POP 0x2F STOP MSTORE8 0xBB MUL 0xB3 0xB2 PUSH7 0x88B4ECA6CFB0E6 CHAINID 0x2C DUP7 0xE6 0xDC PUSH4 0x50C7D54F PUSH12 0xBC82FC64736F6C6343000815 STOP CALLER "
				},
				"gasEstimates": {
					"creation": {
						"codeDepositCost": "253400",
						"executionCost": "292",
						"totalCost": "253692"
					},
					"external": {
						"getBit(uint256,uint256)": "infinite"
					}
				},
				"methodIdentifiers": {
					"getBit(uint256,uint256)": "d5050029"
				}
			},
			"storageLayout": {
				"storage": [],
				"types": null
			},
			"userdoc": {
				"kind": "user",
				"methods": {},
				"version": 1
			}
		}
	}
}