{
	"kuliah/faucet.sol": {
		"Faucet": {
			"abi": [
				{
					"inputs": [
						{
							"internalType": "uint256",
							"name": "sedekahAmount",
							"type": "uint256"
						}
					],
					"name": "sedekah",
					"outputs": [],
					"stateMutability": "nonpayable",
					"type": "function"
				},
				{
					"stateMutability": "payable",
					"type": "receive"
				}
			],
			"devdoc": {
				"kind": "dev",
				"methods": {},
				"version": 1
			},
			"evm": {
				"assembly": "    /* \"kuliah/faucet.sol\":60:1010  contract Faucet{... */\n  mstore(0x40, 0x80)\n  callvalue\n  dup1\n  iszero\n  tag_1\n  jumpi\n  0x00\n  dup1\n  revert\ntag_1:\n  pop\n  dataSize(sub_0)\n  dup1\n  dataOffset(sub_0)\n  0x00\n  codecopy\n  0x00\n  return\nstop\n\nsub_0: assembly {\n        /* \"kuliah/faucet.sol\":60:1010  contract Faucet{... */\n      mstore(0x40, 0x80)\n      jumpi(tag_1, lt(calldatasize, 0x04))\n      shr(0xe0, calldataload(0x00))\n      dup1\n      0xdfcae16e\n      eq\n      tag_3\n      jumpi\n      jump(tag_2)\n    tag_1:\n      jumpi(tag_2, calldatasize)\n      stop\n    tag_2:\n      0x00\n      dup1\n      revert\n        /* \"kuliah/faucet.sol\":248:1007  function sedekah (uint sedekahAmount) external {... */\n    tag_3:\n      callvalue\n      dup1\n      iszero\n      tag_6\n      jumpi\n      0x00\n      dup1\n      revert\n    tag_6:\n      pop\n      tag_7\n      0x04\n      dup1\n      calldatasize\n      sub\n      dup2\n      add\n      swap1\n      tag_8\n      swap2\n      swap1\n      tag_9\n      jump\t// in\n    tag_8:\n      tag_10\n      jump\t// in\n    tag_7:\n      stop\n    tag_10:\n        /* \"kuliah/faucet.sol\":513:526  sedekahAmount */\n      dup1\n        /* \"kuliah/faucet.sol\":488:509  address(this).balance */\n      selfbalance\n        /* \"kuliah/faucet.sol\":488:526  address(this).balance >= sedekahAmount */\n      lt\n      iszero\n        /* \"kuliah/faucet.sol\":480:545  require(address(this).balance >= sedekahAmount, \"ga ada duit :(\") */\n      tag_12\n      jumpi\n      mload(0x40)\n      0x08c379a000000000000000000000000000000000000000000000000000000000\n      dup2\n      mstore\n      0x04\n      add\n      tag_13\n      swap1\n      tag_14\n      jump\t// in\n    tag_13:\n      mload(0x40)\n      dup1\n      swap2\n      sub\n      swap1\n      revert\n    tag_12:\n        /* \"kuliah/faucet.sol\":618:625  1 ether */\n      0x0de0b6b3a7640000\n        /* \"kuliah/faucet.sol\":601:614  sedekahAmount */\n      dup2\n        /* \"kuliah/faucet.sol\":601:625  sedekahAmount <= 1 ether */\n      gt\n      iszero\n        /* \"kuliah/faucet.sol\":593:642  require(sedekahAmount <= 1 ether, \"jangan maruk\") */\n      tag_15\n      jumpi\n      mload(0x40)\n      0x08c379a000000000000000000000000000000000000000000000000000000000\n      dup2\n      mstore\n      0x04\n      add\n      tag_16\n      swap1\n      tag_17\n      jump\t// in\n    tag_16:\n      mload(0x40)\n      dup1\n      swap2\n      sub\n      swap1\n      revert\n    tag_15:\n        /* \"kuliah/faucet.sol\":682:690  90 ether */\n      0x04e1003b28d9280000\n        /* \"kuliah/faucet.sol\":661:671  msg.sender */\n      caller\n        /* \"kuliah/faucet.sol\":661:679  msg.sender.balance */\n      0xffffffffffffffffffffffffffffffffffffffff\n      and\n      balance\n        /* \"kuliah/faucet.sol\":661:690  msg.sender.balance < 90 ether */\n      lt\n        /* \"kuliah/faucet.sol\":653:710  require(msg.sender.balance < 90 ether, \"minggir lu kaya\") */\n      tag_18\n      jumpi\n      mload(0x40)\n      0x08c379a000000000000000000000000000000000000000000000000000000000\n      dup2\n      mstore\n      0x04\n      add\n      tag_19\n      swap1\n      tag_20\n      jump\t// in\n    tag_19:\n      mload(0x40)\n      dup1\n      swap2\n      sub\n      swap1\n      revert\n    tag_18:\n        /* \"kuliah/faucet.sol\":843:855  bool success */\n      0x00\n        /* \"kuliah/faucet.sol\":861:871  msg.sender */\n      caller\n        /* \"kuliah/faucet.sol\":861:876  msg.sender.call */\n      0xffffffffffffffffffffffffffffffffffffffff\n      and\n        /* \"kuliah/faucet.sol\":884:897  sedekahAmount */\n      dup3\n        /* \"kuliah/faucet.sol\":861:909  msg.sender.call{value: sedekahAmount}(\"message\") */\n      mload(0x40)\n      tag_21\n      swap1\n      tag_22\n      jump\t// in\n    tag_21:\n      0x00\n      mload(0x40)\n      dup1\n      dup4\n      sub\n      dup2\n      dup6\n      dup8\n      gas\n      call\n      swap3\n      pop\n      pop\n      pop\n      returndatasize\n      dup1\n      0x00\n      dup2\n      eq\n      tag_25\n      jumpi\n      mload(0x40)\n      swap2\n      pop\n      and(add(returndatasize, 0x3f), not(0x1f))\n      dup3\n      add\n      0x40\n      mstore\n      returndatasize\n      dup3\n      mstore\n      returndatasize\n      0x00\n      0x20\n      dup5\n      add\n      returndatacopy\n      jump(tag_24)\n    tag_25:\n      0x60\n      swap2\n      pop\n    tag_24:\n      pop\n        /* \"kuliah/faucet.sol\":842:909  (bool success, ) = msg.sender.call{value: sedekahAmount}(\"message\") */\n      pop\n      swap1\n      pop\n        /* \"kuliah/faucet.sol\":975:982  success */\n      dup1\n        /* \"kuliah/faucet.sol\":967:999  require(success, \"ada error ni\") */\n      tag_26\n      jumpi\n      mload(0x40)\n      0x08c379a000000000000000000000000000000000000000000000000000000000\n      dup2\n      mstore\n      0x04\n      add\n      tag_27\n      swap1\n      tag_28\n      jump\t// in\n    tag_27:\n      mload(0x40)\n      dup1\n      swap2\n      sub\n      swap1\n      revert\n    tag_26:\n        /* \"kuliah/faucet.sol\":295:1007  {... */\n      pop\n        /* \"kuliah/faucet.sol\":248:1007  function sedekah (uint sedekahAmount) external {... */\n      pop\n      jump\t// out\n        /* \"#utility.yul\":88:205   */\n    tag_30:\n        /* \"#utility.yul\":197:198   */\n      0x00\n        /* \"#utility.yul\":194:195   */\n      dup1\n        /* \"#utility.yul\":187:199   */\n      revert\n        /* \"#utility.yul\":334:411   */\n    tag_32:\n        /* \"#utility.yul\":371:378   */\n      0x00\n        /* \"#utility.yul\":400:405   */\n      dup2\n        /* \"#utility.yul\":389:405   */\n      swap1\n      pop\n        /* \"#utility.yul\":334:411   */\n      swap2\n      swap1\n      pop\n      jump\t// out\n        /* \"#utility.yul\":417:539   */\n    tag_33:\n        /* \"#utility.yul\":490:514   */\n      tag_53\n        /* \"#utility.yul\":508:513   */\n      dup2\n        /* \"#utility.yul\":490:514   */\n      tag_32\n      jump\t// in\n    tag_53:\n        /* \"#utility.yul\":483:488   */\n      dup2\n        /* \"#utility.yul\":480:515   */\n      eq\n        /* \"#utility.yul\":470:533   */\n      tag_54\n      jumpi\n        /* \"#utility.yul\":529:530   */\n      0x00\n        /* \"#utility.yul\":526:527   */\n      dup1\n        /* \"#utility.yul\":519:531   */\n      revert\n        /* \"#utility.yul\":470:533   */\n    tag_54:\n        /* \"#utility.yul\":417:539   */\n      pop\n      jump\t// out\n        /* \"#utility.yul\":545:684   */\n    tag_34:\n        /* \"#utility.yul\":591:596   */\n      0x00\n        /* \"#utility.yul\":629:635   */\n      dup2\n        /* \"#utility.yul\":616:636   */\n      calldataload\n        /* \"#utility.yul\":607:636   */\n      swap1\n      pop\n        /* \"#utility.yul\":645:678   */\n      tag_56\n        /* \"#utility.yul\":672:677   */\n      dup2\n        /* \"#utility.yul\":645:678   */\n      tag_33\n      jump\t// in\n    tag_56:\n        /* \"#utility.yul\":545:684   */\n      swap3\n      swap2\n      pop\n      pop\n      jump\t// out\n        /* \"#utility.yul\":690:1019   */\n    tag_9:\n        /* \"#utility.yul\":749:755   */\n      0x00\n        /* \"#utility.yul\":798:800   */\n      0x20\n        /* \"#utility.yul\":786:795   */\n      dup3\n        /* \"#utility.yul\":777:784   */\n      dup5\n        /* \"#utility.yul\":773:796   */\n      sub\n        /* \"#utility.yul\":769:801   */\n      slt\n        /* \"#utility.yul\":766:885   */\n      iszero\n      tag_58\n      jumpi\n        /* \"#utility.yul\":804:883   */\n      tag_59\n      tag_30\n      jump\t// in\n    tag_59:\n        /* \"#utility.yul\":766:885   */\n    tag_58:\n        /* \"#utility.yul\":924:925   */\n      0x00\n        /* \"#utility.yul\":949:1002   */\n      tag_60\n        /* \"#utility.yul\":994:1001   */\n      dup5\n        /* \"#utility.yul\":985:991   */\n      dup3\n        /* \"#utility.yul\":974:983   */\n      dup6\n        /* \"#utility.yul\":970:992   */\n      add\n        /* \"#utility.yul\":949:1002   */\n      tag_34\n      jump\t// in\n    tag_60:\n        /* \"#utility.yul\":939:1002   */\n      swap2\n      pop\n        /* \"#utility.yul\":895:1012   */\n      pop\n        /* \"#utility.yul\":690:1019   */\n      swap3\n      swap2\n      pop\n      pop\n      jump\t// out\n        /* \"#utility.yul\":1025:1194   */\n    tag_35:\n        /* \"#utility.yul\":1109:1120   */\n      0x00\n        /* \"#utility.yul\":1143:1149   */\n      dup3\n        /* \"#utility.yul\":1138:1141   */\n      dup3\n        /* \"#utility.yul\":1131:1150   */\n      mstore\n        /* \"#utility.yul\":1183:1187   */\n      0x20\n        /* \"#utility.yul\":1178:1181   */\n      dup3\n        /* \"#utility.yul\":1174:1188   */\n      add\n        /* \"#utility.yul\":1159:1188   */\n      swap1\n      pop\n        /* \"#utility.yul\":1025:1194   */\n      swap3\n      swap2\n      pop\n      pop\n      jump\t// out\n        /* \"#utility.yul\":1200:1368   */\n    tag_36:\n        /* \"#utility.yul\":1340:1356   */\n      0x6761206164612064756974203a28000000000000000000000000000000000000\n        /* \"#utility.yul\":1336:1337   */\n      0x00\n        /* \"#utility.yul\":1328:1334   */\n      dup3\n        /* \"#utility.yul\":1324:1338   */\n      add\n        /* \"#utility.yul\":1317:1357   */\n      mstore\n        /* \"#utility.yul\":1200:1368   */\n      pop\n      jump\t// out\n        /* \"#utility.yul\":1378:1760   */\n    tag_37:\n        /* \"#utility.yul\":1520:1523   */\n      0x00\n        /* \"#utility.yul\":1545:1612   */\n      tag_64\n        /* \"#utility.yul\":1609:1611   */\n      0x0e\n        /* \"#utility.yul\":1604:1607   */\n      dup4\n        /* \"#utility.yul\":1545:1612   */\n      tag_35\n      jump\t// in\n    tag_64:\n        /* \"#utility.yul\":1538:1612   */\n      swap2\n      pop\n        /* \"#utility.yul\":1625:1718   */\n      tag_65\n        /* \"#utility.yul\":1714:1717   */\n      dup3\n        /* \"#utility.yul\":1625:1718   */\n      tag_36\n      jump\t// in\n    tag_65:\n        /* \"#utility.yul\":1747:1749   */\n      0x20\n        /* \"#utility.yul\":1742:1745   */\n      dup3\n        /* \"#utility.yul\":1738:1750   */\n      add\n        /* \"#utility.yul\":1731:1750   */\n      swap1\n      pop\n        /* \"#utility.yul\":1378:1760   */\n      swap2\n      swap1\n      pop\n      jump\t// out\n        /* \"#utility.yul\":1770:2205   */\n    tag_14:\n        /* \"#utility.yul\":1936:1940   */\n      0x00\n        /* \"#utility.yul\":1978:1980   */\n      0x20\n        /* \"#utility.yul\":1967:1976   */\n      dup3\n        /* \"#utility.yul\":1963:1981   */\n      add\n        /* \"#utility.yul\":1955:1981   */\n      swap1\n      pop\n        /* \"#utility.yul\":2031:2040   */\n      dup2\n        /* \"#utility.yul\":2025:2029   */\n      dup2\n        /* \"#utility.yul\":2021:2041   */\n      sub\n        /* \"#utility.yul\":2017:2018   */\n      0x00\n        /* \"#utility.yul\":2006:2015   */\n      dup4\n        /* \"#utility.yul\":2002:2019   */\n      add\n        /* \"#utility.yul\":1995:2042   */\n      mstore\n        /* \"#utility.yul\":2063:2194   */\n      tag_67\n        /* \"#utility.yul\":2189:2193   */\n      dup2\n        /* \"#utility.yul\":2063:2194   */\n      tag_37\n      jump\t// in\n    tag_67:\n        /* \"#utility.yul\":2055:2194   */\n      swap1\n      pop\n        /* \"#utility.yul\":1770:2205   */\n      swap2\n      swap1\n      pop\n      jump\t// out\n        /* \"#utility.yul\":2215:2385   */\n    tag_38:\n        /* \"#utility.yul\":2359:2373   */\n      0x6a616e67616e206d6172756b0000000000000000000000000000000000000000\n        /* \"#utility.yul\":2355:2356   */\n      0x00\n        /* \"#utility.yul\":2347:2353   */\n      dup3\n        /* \"#utility.yul\":2343:2357   */\n      add\n        /* \"#utility.yul\":2336:2374   */\n      mstore\n        /* \"#utility.yul\":2215:2385   */\n      pop\n      jump\t// out\n        /* \"#utility.yul\":2395:2777   */\n    tag_39:\n        /* \"#utility.yul\":2537:2540   */\n      0x00\n        /* \"#utility.yul\":2562:2629   */\n      tag_70\n        /* \"#utility.yul\":2626:2628   */\n      0x0c\n        /* \"#utility.yul\":2621:2624   */\n      dup4\n        /* \"#utility.yul\":2562:2629   */\n      tag_35\n      jump\t// in\n    tag_70:\n        /* \"#utility.yul\":2555:2629   */\n      swap2\n      pop\n        /* \"#utility.yul\":2642:2735   */\n      tag_71\n        /* \"#utility.yul\":2731:2734   */\n      dup3\n        /* \"#utility.yul\":2642:2735   */\n      tag_38\n      jump\t// in\n    tag_71:\n        /* \"#utility.yul\":2764:2766   */\n      0x20\n        /* \"#utility.yul\":2759:2762   */\n      dup3\n        /* \"#utility.yul\":2755:2767   */\n      add\n        /* \"#utility.yul\":2748:2767   */\n      swap1\n      pop\n        /* \"#utility.yul\":2395:2777   */\n      swap2\n      swap1\n      pop\n      jump\t// out\n        /* \"#utility.yul\":2787:3222   */\n    tag_17:\n        /* \"#utility.yul\":2953:2957   */\n      0x00\n        /* \"#utility.yul\":2995:2997   */\n      0x20\n        /* \"#utility.yul\":2984:2993   */\n      dup3\n        /* \"#utility.yul\":2980:2998   */\n      add\n        /* \"#utility.yul\":2972:2998   */\n      swap1\n      pop\n        /* \"#utility.yul\":3048:3057   */\n      dup2\n        /* \"#utility.yul\":3042:3046   */\n      dup2\n        /* \"#utility.yul\":3038:3058   */\n      sub\n        /* \"#utility.yul\":3034:3035   */\n      0x00\n        /* \"#utility.yul\":3023:3032   */\n      dup4\n        /* \"#utility.yul\":3019:3036   */\n      add\n        /* \"#utility.yul\":3012:3059   */\n      mstore\n        /* \"#utility.yul\":3080:3211   */\n      tag_73\n        /* \"#utility.yul\":3206:3210   */\n      dup2\n        /* \"#utility.yul\":3080:3211   */\n      tag_39\n      jump\t// in\n    tag_73:\n        /* \"#utility.yul\":3072:3211   */\n      swap1\n      pop\n        /* \"#utility.yul\":2787:3222   */\n      swap2\n      swap1\n      pop\n      jump\t// out\n        /* \"#utility.yul\":3232:3405   */\n    tag_40:\n        /* \"#utility.yul\":3376:3393   */\n      0x6d696e67676972206c75206b6179610000000000000000000000000000000000\n        /* \"#utility.yul\":3372:3373   */\n      0x00\n        /* \"#utility.yul\":3364:3370   */\n      dup3\n        /* \"#utility.yul\":3360:3374   */\n      add\n        /* \"#utility.yul\":3353:3394   */\n      mstore\n        /* \"#utility.yul\":3232:3405   */\n      pop\n      jump\t// out\n        /* \"#utility.yul\":3415:3797   */\n    tag_41:\n        /* \"#utility.yul\":3557:3560   */\n      0x00\n        /* \"#utility.yul\":3582:3649   */\n      tag_76\n        /* \"#utility.yul\":3646:3648   */\n      0x0f\n        /* \"#utility.yul\":3641:3644   */\n      dup4\n        /* \"#utility.yul\":3582:3649   */\n      tag_35\n      jump\t// in\n    tag_76:\n        /* \"#utility.yul\":3575:3649   */\n      swap2\n      pop\n        /* \"#utility.yul\":3662:3755   */\n      tag_77\n        /* \"#utility.yul\":3751:3754   */\n      dup3\n        /* \"#utility.yul\":3662:3755   */\n      tag_40\n      jump\t// in\n    tag_77:\n        /* \"#utility.yul\":3784:3786   */\n      0x20\n        /* \"#utility.yul\":3779:3782   */\n      dup3\n        /* \"#utility.yul\":3775:3787   */\n      add\n        /* \"#utility.yul\":3768:3787   */\n      swap1\n      pop\n        /* \"#utility.yul\":3415:3797   */\n      swap2\n      swap1\n      pop\n      jump\t// out\n        /* \"#utility.yul\":3807:4242   */\n    tag_20:\n        /* \"#utility.yul\":3973:3977   */\n      0x00\n        /* \"#utility.yul\":4015:4017   */\n      0x20\n        /* \"#utility.yul\":4004:4013   */\n      dup3\n        /* \"#utility.yul\":4000:4018   */\n      add\n        /* \"#utility.yul\":3992:4018   */\n      swap1\n      pop\n        /* \"#utility.yul\":4068:4077   */\n      dup2\n        /* \"#utility.yul\":4062:4066   */\n      dup2\n        /* \"#utility.yul\":4058:4078   */\n      sub\n        /* \"#utility.yul\":4054:4055   */\n      0x00\n        /* \"#utility.yul\":4043:4052   */\n      dup4\n        /* \"#utility.yul\":4039:4056   */\n      add\n        /* \"#utility.yul\":4032:4079   */\n      mstore\n        /* \"#utility.yul\":4100:4231   */\n      tag_79\n        /* \"#utility.yul\":4226:4230   */\n      dup2\n        /* \"#utility.yul\":4100:4231   */\n      tag_41\n      jump\t// in\n    tag_79:\n        /* \"#utility.yul\":4092:4231   */\n      swap1\n      pop\n        /* \"#utility.yul\":3807:4242   */\n      swap2\n      swap1\n      pop\n      jump\t// out\n        /* \"#utility.yul\":4252:4407   */\n    tag_42:\n        /* \"#utility.yul\":4353:4364   */\n      0x00\n        /* \"#utility.yul\":4394:4397   */\n      dup2\n        /* \"#utility.yul\":4379:4397   */\n      swap1\n      pop\n        /* \"#utility.yul\":4252:4407   */\n      swap3\n      swap2\n      pop\n      pop\n      jump\t// out\n        /* \"#utility.yul\":4417:4582   */\n    tag_43:\n        /* \"#utility.yul\":4561:4570   */\n      0x6d65737361676500000000000000000000000000000000000000000000000000\n        /* \"#utility.yul\":4557:4558   */\n      0x00\n        /* \"#utility.yul\":4549:4555   */\n      dup3\n        /* \"#utility.yul\":4545:4559   */\n      add\n        /* \"#utility.yul\":4538:4571   */\n      mstore\n        /* \"#utility.yul\":4417:4582   */\n      pop\n      jump\t// out\n        /* \"#utility.yul\":4592:5006   */\n    tag_44:\n        /* \"#utility.yul\":4751:4754   */\n      0x00\n        /* \"#utility.yul\":4776:4859   */\n      tag_83\n        /* \"#utility.yul\":4857:4858   */\n      0x07\n        /* \"#utility.yul\":4852:4855   */\n      dup4\n        /* \"#utility.yul\":4776:4859   */\n      tag_42\n      jump\t// in\n    tag_83:\n        /* \"#utility.yul\":4769:4859   */\n      swap2\n      pop\n        /* \"#utility.yul\":4872:4965   */\n      tag_84\n        /* \"#utility.yul\":4961:4964   */\n      dup3\n        /* \"#utility.yul\":4872:4965   */\n      tag_43\n      jump\t// in\n    tag_84:\n        /* \"#utility.yul\":4994:4995   */\n      0x07\n        /* \"#utility.yul\":4989:4992   */\n      dup3\n        /* \"#utility.yul\":4985:4996   */\n      add\n        /* \"#utility.yul\":4978:4996   */\n      swap1\n      pop\n        /* \"#utility.yul\":4592:5006   */\n      swap2\n      swap1\n      pop\n      jump\t// out\n        /* \"#utility.yul\":5016:5407   */\n    tag_22:\n        /* \"#utility.yul\":5200:5203   */\n      0x00\n        /* \"#utility.yul\":5226:5373   */\n      tag_86\n        /* \"#utility.yul\":5369:5372   */\n      dup3\n        /* \"#utility.yul\":5226:5373   */\n      tag_44\n      jump\t// in\n    tag_86:\n        /* \"#utility.yul\":5219:5373   */\n      swap2\n      pop\n        /* \"#utility.yul\":5394:5397   */\n      dup2\n        /* \"#utility.yul\":5387:5397   */\n      swap1\n      pop\n        /* \"#utility.yul\":5016:5407   */\n      swap2\n      swap1\n      pop\n      jump\t// out\n        /* \"#utility.yul\":5417:5587   */\n    tag_45:\n        /* \"#utility.yul\":5561:5575   */\n      0x616461206572726f72206e690000000000000000000000000000000000000000\n        /* \"#utility.yul\":5557:5558   */\n      0x00\n        /* \"#utility.yul\":5549:5555   */\n      dup3\n        /* \"#utility.yul\":5545:5559   */\n      add\n        /* \"#utility.yul\":5538:5576   */\n      mstore\n        /* \"#utility.yul\":5417:5587   */\n      pop\n      jump\t// out\n        /* \"#utility.yul\":5597:5979   */\n    tag_46:\n        /* \"#utility.yul\":5739:5742   */\n      0x00\n        /* \"#utility.yul\":5764:5831   */\n      tag_89\n        /* \"#utility.yul\":5828:5830   */\n      0x0c\n        /* \"#utility.yul\":5823:5826   */\n      dup4\n        /* \"#utility.yul\":5764:5831   */\n      tag_35\n      jump\t// in\n    tag_89:\n        /* \"#utility.yul\":5757:5831   */\n      swap2\n      pop\n        /* \"#utility.yul\":5844:5937   */\n      tag_90\n        /* \"#utility.yul\":5933:5936   */\n      dup3\n        /* \"#utility.yul\":5844:5937   */\n      tag_45\n      jump\t// in\n    tag_90:\n        /* \"#utility.yul\":5966:5968   */\n      0x20\n        /* \"#utility.yul\":5961:5964   */\n      dup3\n        /* \"#utility.yul\":5957:5969   */\n      add\n        /* \"#utility.yul\":5950:5969   */\n      swap1\n      pop\n        /* \"#utility.yul\":5597:5979   */\n      swap2\n      swap1\n      pop\n      jump\t// out\n        /* \"#utility.yul\":5989:6424   */\n    tag_28:\n        /* \"#utility.yul\":6155:6159   */\n      0x00\n        /* \"#utility.yul\":6197:6199   */\n      0x20\n        /* \"#utility.yul\":6186:6195   */\n      dup3\n        /* \"#utility.yul\":6182:6200   */\n      add\n        /* \"#utility.yul\":6174:6200   */\n      swap1\n      pop\n        /* \"#utility.yul\":6250:6259   */\n      dup2\n        /* \"#utility.yul\":6244:6248   */\n      dup2\n        /* \"#utility.yul\":6240:6260   */\n      sub\n        /* \"#utility.yul\":6236:6237   */\n      0x00\n        /* \"#utility.yul\":6225:6234   */\n      dup4\n        /* \"#utility.yul\":6221:6238   */\n      add\n        /* \"#utility.yul\":6214:6261   */\n      mstore\n        /* \"#utility.yul\":6282:6413   */\n      tag_92\n        /* \"#utility.yul\":6408:6412   */\n      dup2\n        /* \"#utility.yul\":6282:6413   */\n      tag_46\n      jump\t// in\n    tag_92:\n        /* \"#utility.yul\":6274:6413   */\n      swap1\n      pop\n        /* \"#utility.yul\":5989:6424   */\n      swap2\n      swap1\n      pop\n      jump\t// out\n\n    auxdata: 0xa2646970667358221220b7d96b4e40673eca9f92c7bb657fa044031551653822b05fe4109002cd58419764736f6c634300081a0033\n}\n",
				"bytecode": {
					"linkReferences": {},
					"object": "6080604052348015600e575f80fd5b506104a08061001c5f395ff3fe608060405260043610610021575f3560e01c8063dfcae16e1461002c57610028565b3661002857005b5f80fd5b348015610037575f80fd5b50610052600480360381019061004d9190610227565b610054565b005b80471015610097576040517f08c379a000000000000000000000000000000000000000000000000000000000815260040161008e906102ac565b60405180910390fd5b670de0b6b3a76400008111156100e2576040517f08c379a00000000000000000000000000000000000000000000000000000000081526004016100d990610314565b60405180910390fd5b6804e1003b28d92800003373ffffffffffffffffffffffffffffffffffffffff163110610144576040517f08c379a000000000000000000000000000000000000000000000000000000000815260040161013b9061037c565b60405180910390fd5b5f3373ffffffffffffffffffffffffffffffffffffffff1682604051610169906103ee565b5f6040518083038185875af1925050503d805f81146101a3576040519150601f19603f3d011682016040523d82523d5f602084013e6101a8565b606091505b50509050806101ec576040517f08c379a00000000000000000000000000000000000000000000000000000000081526004016101e39061044c565b60405180910390fd5b5050565b5f80fd5b5f819050919050565b610206816101f4565b8114610210575f80fd5b50565b5f81359050610221816101fd565b92915050565b5f6020828403121561023c5761023b6101f0565b5b5f61024984828501610213565b91505092915050565b5f82825260208201905092915050565b7f6761206164612064756974203a280000000000000000000000000000000000005f82015250565b5f610296600e83610252565b91506102a182610262565b602082019050919050565b5f6020820190508181035f8301526102c38161028a565b9050919050565b7f6a616e67616e206d6172756b00000000000000000000000000000000000000005f82015250565b5f6102fe600c83610252565b9150610309826102ca565b602082019050919050565b5f6020820190508181035f83015261032b816102f2565b9050919050565b7f6d696e67676972206c75206b61796100000000000000000000000000000000005f82015250565b5f610366600f83610252565b915061037182610332565b602082019050919050565b5f6020820190508181035f8301526103938161035a565b9050919050565b5f81905092915050565b7f6d657373616765000000000000000000000000000000000000000000000000005f82015250565b5f6103d860078361039a565b91506103e3826103a4565b600782019050919050565b5f6103f8826103cc565b9150819050919050565b7f616461206572726f72206e6900000000000000000000000000000000000000005f82015250565b5f610436600c83610252565b915061044182610402565b602082019050919050565b5f6020820190508181035f8301526104638161042a565b905091905056fea2646970667358221220b7d96b4e40673eca9f92c7bb657fa044031551653822b05fe4109002cd58419764736f6c634300081a0033",
					"opcodes": "PUSH1 0x80 PUSH1 0x40 MSTORE CALLVALUE DUP1 ISZERO PUSH1 0xE JUMPI PUSH0 DUP1 REVERT JUMPDEST POP PUSH2 0x4A0 DUP1 PUSH2 0x1C PUSH0 CODECOPY PUSH0 RETURN INVALID PUSH1 0x80 PUSH1 0x40 MSTORE PUSH1 0x4 CALLDATASIZE LT PUSH2 0x21 JUMPI PUSH0 CALLDATALOAD PUSH1 0xE0 SHR DUP1 PUSH4 0xDFCAE16E EQ PUSH2 0x2C JUMPI PUSH2 0x28 JUMP JUMPDEST CALLDATASIZE PUSH2 0x28 JUMPI STOP JUMPDEST PUSH0 DUP1 REVERT JUMPDEST CALLVALUE DUP1 ISZERO PUSH2 0x37 JUMPI PUSH0 DUP1 REVERT JUMPDEST POP PUSH2 0x52 PUSH1 0x4 DUP1 CALLDATASIZE SUB DUP2 ADD SWAP1 PUSH2 0x4D SWAP2 SWAP1 PUSH2 0x227 JUMP JUMPDEST PUSH2 0x54 JUMP JUMPDEST STOP JUMPDEST DUP1 SELFBALANCE LT ISZERO PUSH2 0x97 JUMPI PUSH1 0x40 MLOAD PUSH32 0x8C379A000000000000000000000000000000000000000000000000000000000 DUP2 MSTORE PUSH1 0x4 ADD PUSH2 0x8E SWAP1 PUSH2 0x2AC JUMP JUMPDEST PUSH1 0x40 MLOAD DUP1 SWAP2 SUB SWAP1 REVERT JUMPDEST PUSH8 0xDE0B6B3A7640000 DUP2 GT ISZERO PUSH2 0xE2 JUMPI PUSH1 0x40 MLOAD PUSH32 0x8C379A000000000000000000000000000000000000000000000000000000000 DUP2 MSTORE PUSH1 0x4 ADD PUSH2 0xD9 SWAP1 PUSH2 0x314 JUMP JUMPDEST PUSH1 0x40 MLOAD DUP1 SWAP2 SUB SWAP1 REVERT JUMPDEST PUSH9 0x4E1003B28D9280000 CALLER PUSH20 0xFFFFFFFFFFFFFFFFFFFFFFFFFFFFFFFFFFFFFFFF AND BALANCE LT PUSH2 0x144 JUMPI PUSH1 0x40 MLOAD PUSH32 0x8C379A000000000000000000000000000000000000000000000000000000000 DUP2 MSTORE PUSH1 0x4 ADD PUSH2 0x13B SWAP1 PUSH2 0x37C JUMP JUMPDEST PUSH1 0x40 MLOAD DUP1 SWAP2 SUB SWAP1 REVERT JUMPDEST PUSH0 CALLER PUSH20 0xFFFFFFFFFFFFFFFFFFFFFFFFFFFFFFFFFFFFFFFF AND DUP3 PUSH1 0x40 MLOAD PUSH2 0x169 SWAP1 PUSH2 0x3EE JUMP JUMPDEST PUSH0 PUSH1 0x40 MLOAD DUP1 DUP4 SUB DUP2 DUP6 DUP8 GAS CALL SWAP3 POP POP POP RETURNDATASIZE DUP1 PUSH0 DUP2 EQ PUSH2 0x1A3 JUMPI PUSH1 0x40 MLOAD SWAP2 POP PUSH1 0x1F NOT PUSH1 0x3F RETURNDATASIZE ADD AND DUP3 ADD PUSH1 0x40 MSTORE RETURNDATASIZE DUP3 MSTORE RETURNDATASIZE PUSH0 PUSH1 0x20 DUP5 ADD RETURNDATACOPY PUSH2 0x1A8 JUMP JUMPDEST PUSH1 0x60 SWAP2 POP JUMPDEST POP POP SWAP1 POP DUP1 PUSH2 0x1EC JUMPI PUSH1 0x40 MLOAD PUSH32 0x8C379A000000000000000000000000000000000000000000000000000000000 DUP2 MSTORE PUSH1 0x4 ADD PUSH2 0x1E3 SWAP1 PUSH2 0x44C JUMP JUMPDEST PUSH1 0x40 MLOAD DUP1 SWAP2 SUB SWAP1 REVERT JUMPDEST POP POP JUMP JUMPDEST PUSH0 DUP1 REVERT JUMPDEST PUSH0 DUP2 SWAP1 POP SWAP2 SWAP1 POP JUMP JUMPDEST PUSH2 0x206 DUP2 PUSH2 0x1F4 JUMP JUMPDEST DUP2 EQ PUSH2 0x210 JUMPI PUSH0 DUP1 REVERT JUMPDEST POP JUMP JUMPDEST PUSH0 DUP2 CALLDATALOAD SWAP1 POP PUSH2 0x221 DUP2 PUSH2 0x1FD JUMP JUMPDEST SWAP3 SWAP2 POP POP JUMP JUMPDEST PUSH0 PUSH1 0x20 DUP3 DUP5 SUB SLT ISZERO PUSH2 0x23C JUMPI PUSH2 0x23B PUSH2 0x1F0 JUMP JUMPDEST JUMPDEST PUSH0 PUSH2 0x249 DUP5 DUP3 DUP6 ADD PUSH2 0x213 JUMP JUMPDEST SWAP2 POP POP SWAP3 SWAP2 POP POP JUMP JUMPDEST PUSH0 DUP3 DUP3 MSTORE PUSH1 0x20 DUP3 ADD SWAP1 POP SWAP3 SWAP2 POP POP JUMP JUMPDEST PUSH32 0x6761206164612064756974203A28000000000000000000000000000000000000 PUSH0 DUP3 ADD MSTORE POP JUMP JUMPDEST PUSH0 PUSH2 0x296 PUSH1 0xE DUP4 PUSH2 0x252 JUMP JUMPDEST SWAP2 POP PUSH2 0x2A1 DUP3 PUSH2 0x262 JUMP JUMPDEST PUSH1 0x20 DUP3 ADD SWAP1 POP SWAP2 SWAP1 POP JUMP JUMPDEST PUSH0 PUSH1 0x20 DUP3 ADD SWAP1 POP DUP2 DUP2 SUB PUSH0 DUP4 ADD MSTORE PUSH2 0x2C3 DUP2 PUSH2 0x28A JUMP JUMPDEST SWAP1 POP SWAP2 SWAP1 POP JUMP JUMPDEST PUSH32 0x6A616E67616E206D6172756B0000000000000000000000000000000000000000 PUSH0 DUP3 ADD MSTORE POP JUMP JUMPDEST PUSH0 PUSH2 0x2FE PUSH1 0xC DUP4 PUSH2 0x252 JUMP JUMPDEST SWAP2 POP PUSH2 0x309 DUP3 PUSH2 0x2CA JUMP JUMPDEST PUSH1 0x20 DUP3 ADD SWAP1 POP SWAP2 SWAP1 POP JUMP JUMPDEST PUSH0 PUSH1 0x20 DUP3 ADD SWAP1 POP DUP2 DUP2 SUB PUSH0 DUP4 ADD MSTORE PUSH2 0x32B DUP2 PUSH2 0x2F2 JUMP JUMPDEST SWAP1 POP SWAP2 SWAP1 POP JUMP JUMPDEST PUSH32 0x6D696E67676972206C75206B6179610000000000000000000000000000000000 PUSH0 DUP3 ADD MSTORE POP JUMP JUMPDEST PUSH0 PUSH2 0x366 PUSH1 0xF DUP4 PUSH2 0x252 JUMP JUMPDEST SWAP2 POP PUSH2 0x371 DUP3 PUSH2 0x332 JUMP JUMPDEST PUSH1 0x20 DUP3 ADD SWAP1 POP SWAP2 SWAP1 POP JUMP JUMPDEST PUSH0 PUSH1 0x20 DUP3 ADD SWAP1 POP DUP2 DUP2 SUB PUSH0 DUP4 ADD MSTORE PUSH2 0x393 DUP2 PUSH2 0x35A JUMP JUMPDEST SWAP1 POP SWAP2 SWAP1 POP JUMP JUMPDEST PUSH0 DUP2 SWAP1 POP SWAP3 SWAP2 POP POP JUMP JUMPDEST PUSH32 0x6D65737361676500000000000000000000000000000000000000000000000000 PUSH0 DUP3 ADD MSTORE POP JUMP JUMPDEST PUSH0 PUSH2 0x3D8 PUSH1 0x7 DUP4 PUSH2 0x39A JUMP JUMPDEST SWAP2 POP PUSH2 0x3E3 DUP3 PUSH2 0x3A4 JUMP JUMPDEST PUSH1 0x7 DUP3 ADD SWAP1 POP SWAP2 SWAP1 POP JUMP JUMPDEST PUSH0 PUSH2 0x3F8 DUP3 PUSH2 0x3CC JUMP JUMPDEST SWAP2 POP DUP2 SWAP1 POP SWAP2 SWAP1 POP JUMP JUMPDEST PUSH32 0x616461206572726F72206E690000000000000000000000000000000000000000 PUSH0 DUP3 ADD MSTORE POP JUMP JUMPDEST PUSH0 PUSH2 0x436 PUSH1 0xC DUP4 PUSH2 0x252 JUMP JUMPDEST SWAP2 POP PUSH2 0x441 DUP3 PUSH2 0x402 JUMP JUMPDEST PUSH1 0x20 DUP3 ADD SWAP1 POP SWAP2 SWAP1 POP JUMP JUMPDEST PUSH0 PUSH1 0x20 DUP3 ADD SWAP1 POP DUP2 DUP2 SUB PUSH0 DUP4 ADD MSTORE PUSH2 0x463 DUP2 PUSH2 0x42A JUMP JUMPDEST SWAP1 POP SWAP2 SWAP1 POP JUMP INVALID LOG2 PUSH5 0x6970667358 0x22 SLT KECCAK256 0xB7 0xD9 PUSH12 0x4E40673ECA9F92C7BB657FA0 PREVRANDAO SUB ISZERO MLOAD PUSH6 0x3822B05FE410 SWAP1 MUL 0xCD PC COINBASE SWAP8 PUSH5 0x736F6C6343 STOP ADDMOD BYTE STOP CALLER "
				},
				"gasEstimates": {
					"creation": {
						"codeDepositCost": "236800",
						"executionCost": "273",
						"totalCost": "237073"
					},
					"external": {
						"sedekah(uint256)": "infinite"
					}
				},
				"methodIdentifiers": {
					"sedekah(uint256)": "dfcae16e"
				}
			},
			"storageLayout": {
				"storage": [],
				"types": null
			},
			"userdoc": {
				"kind": "user",
				"methods": {},
				"version": 1
			}
		}
	}
}