{
	"lecture/Faucet.sol": {
		"Faucet": {
			"abi": [
				{
					"inputs": [],
					"name": "getFaucetBalance",
					"outputs": [
						{
							"internalType": "uint256",
							"name": "",
							"type": "uint256"
						}
					],
					"stateMutability": "view",
					"type": "function"
				},
				{
					"inputs": [
						{
							"internalType": "uint256",
							"name": "withdrawAmount",
							"type": "uint256"
						}
					],
					"name": "withdraw",
					"outputs": [],
					"stateMutability": "nonpayable",
					"type": "function"
				},
				{
					"stateMutability": "payable",
					"type": "receive"
				}
			],
			"devdoc": {
				"kind": "dev",
				"methods": {},
				"version": 1
			},
			"evm": {
				"assembly": "    /* \"lecture/Faucet.sol\":1110:1762  contract Faucet {... */\n  mstore(0x40, 0x80)\n  callvalue\n  dup1\n  iszero\n  tag_1\n  jumpi\n  0x00\n  dup1\n  revert\ntag_1:\n  pop\n  dataSize(sub_0)\n  dup1\n  dataOffset(sub_0)\n  0x00\n  codecopy\n  0x00\n  return\nstop\n\nsub_0: assembly {\n        /* \"lecture/Faucet.sol\":1110:1762  contract Faucet {... */\n      mstore(0x40, 0x80)\n      jumpi(tag_1, lt(calldatasize, 0x04))\n      shr(0xe0, calldataload(0x00))\n      dup1\n      0x2e1a7d4d\n      eq\n      tag_3\n      jumpi\n      dup1\n      0xf1f959a6\n      eq\n      tag_4\n      jumpi\n      jump(tag_2)\n    tag_1:\n      jumpi(tag_2, calldatasize)\n      stop\n    tag_2:\n      0x00\n      dup1\n      revert\n        /* \"lecture/Faucet.sol\":1170:1595  function withdraw(uint256 withdrawAmount) public {... */\n    tag_3:\n      callvalue\n      dup1\n      iszero\n      tag_7\n      jumpi\n      0x00\n      dup1\n      revert\n    tag_7:\n      pop\n      tag_8\n      0x04\n      dup1\n      calldatasize\n      sub\n      dup2\n      add\n      swap1\n      tag_9\n      swap2\n      swap1\n      tag_10\n      jump\t// in\n    tag_9:\n      tag_11\n      jump\t// in\n    tag_8:\n      stop\n        /* \"lecture/Faucet.sol\":1654:1759  function getFaucetBalance() public view returns (uint256) {... */\n    tag_4:\n      callvalue\n      dup1\n      iszero\n      tag_12\n      jumpi\n      0x00\n      dup1\n      revert\n    tag_12:\n      pop\n      tag_13\n      tag_14\n      jump\t// in\n    tag_13:\n      mload(0x40)\n      tag_15\n      swap2\n      swap1\n      tag_16\n      jump\t// in\n    tag_15:\n      mload(0x40)\n      dup1\n      swap2\n      sub\n      swap1\n      return\n        /* \"lecture/Faucet.sol\":1170:1595  function withdraw(uint256 withdrawAmount) public {... */\n    tag_11:\n        /* \"lecture/Faucet.sol\":1256:1265  0.1 ether */\n      0x016345785d8a0000\n        /* \"lecture/Faucet.sol\":1238:1252  withdrawAmount */\n      dup2\n        /* \"lecture/Faucet.sol\":1238:1265  withdrawAmount <= 0.1 ether */\n      gt\n      iszero\n        /* \"lecture/Faucet.sol\":1230:1303  require(withdrawAmount <= 0.1 ether, \"Withdraw amount exceeds the limit\") */\n      tag_18\n      jumpi\n      mload(0x40)\n      0x08c379a000000000000000000000000000000000000000000000000000000000\n      dup2\n      mstore\n      0x04\n      add\n      tag_19\n      swap1\n      tag_20\n      jump\t// in\n    tag_19:\n      mload(0x40)\n      dup1\n      swap2\n      sub\n      swap1\n      revert\n    tag_18:\n        /* \"lecture/Faucet.sol\":1349:1363  withdrawAmount */\n      dup1\n        /* \"lecture/Faucet.sol\":1324:1345  address(this).balance */\n      selfbalance\n        /* \"lecture/Faucet.sol\":1324:1363  address(this).balance >= withdrawAmount */\n      lt\n      iszero\n        /* \"lecture/Faucet.sol\":1316:1397  require(address(this).balance >= withdrawAmount, \"Faucet empty, try again later\") */\n      tag_21\n      jumpi\n      mload(0x40)\n      0x08c379a000000000000000000000000000000000000000000000000000000000\n      dup2\n      mstore\n      0x04\n      add\n      tag_22\n      swap1\n      tag_23\n      jump\t// in\n    tag_22:\n      mload(0x40)\n      dup1\n      swap2\n      sub\n      swap1\n      revert\n    tag_21:\n        /* \"lecture/Faucet.sol\":1418:1428  msg.sender */\n      caller\n        /* \"lecture/Faucet.sol\":1418:1433  msg.sender.call */\n      0xffffffffffffffffffffffffffffffffffffffff\n      and\n        /* \"lecture/Faucet.sol\":1441:1455  withdrawAmount */\n      dup2\n        /* \"lecture/Faucet.sol\":1418:1460  msg.sender.call{value: withdrawAmount}(\"\") */\n      mload(0x40)\n      tag_24\n      swap1\n      tag_25\n      jump\t// in\n    tag_24:\n      0x00\n      mload(0x40)\n      dup1\n      dup4\n      sub\n      dup2\n      dup6\n      dup8\n      gas\n      call\n      swap3\n      pop\n      pop\n      pop\n      returndatasize\n      dup1\n      0x00\n      dup2\n      eq\n      tag_28\n      jumpi\n      mload(0x40)\n      swap2\n      pop\n      and(add(returndatasize, 0x3f), not(0x1f))\n      dup3\n      add\n      0x40\n      mstore\n      returndatasize\n      dup3\n      mstore\n      returndatasize\n      0x00\n      0x20\n      dup5\n      add\n      returndatacopy\n      jump(tag_27)\n    tag_28:\n      0x60\n      swap2\n      pop\n    tag_27:\n      pop\n      pop\n      pop\n        /* \"lecture/Faucet.sol\":1170:1595  function withdraw(uint256 withdrawAmount) public {... */\n      pop\n      jump\t// out\n        /* \"lecture/Faucet.sol\":1654:1759  function getFaucetBalance() public view returns (uint256) {... */\n    tag_14:\n        /* \"lecture/Faucet.sol\":1703:1710  uint256 */\n      0x00\n        /* \"lecture/Faucet.sol\":1730:1751  address(this).balance */\n      selfbalance\n        /* \"lecture/Faucet.sol\":1723:1751  return address(this).balance */\n      swap1\n      pop\n        /* \"lecture/Faucet.sol\":1654:1759  function getFaucetBalance() public view returns (uint256) {... */\n      swap1\n      jump\t// out\n        /* \"#utility.yul\":88:205   */\n    tag_31:\n        /* \"#utility.yul\":197:198   */\n      0x00\n        /* \"#utility.yul\":194:195   */\n      dup1\n        /* \"#utility.yul\":187:199   */\n      revert\n        /* \"#utility.yul\":334:411   */\n    tag_33:\n        /* \"#utility.yul\":371:378   */\n      0x00\n        /* \"#utility.yul\":400:405   */\n      dup2\n        /* \"#utility.yul\":389:405   */\n      swap1\n      pop\n        /* \"#utility.yul\":334:411   */\n      swap2\n      swap1\n      pop\n      jump\t// out\n        /* \"#utility.yul\":417:539   */\n    tag_34:\n        /* \"#utility.yul\":490:514   */\n      tag_51\n        /* \"#utility.yul\":508:513   */\n      dup2\n        /* \"#utility.yul\":490:514   */\n      tag_33\n      jump\t// in\n    tag_51:\n        /* \"#utility.yul\":483:488   */\n      dup2\n        /* \"#utility.yul\":480:515   */\n      eq\n        /* \"#utility.yul\":470:533   */\n      tag_52\n      jumpi\n        /* \"#utility.yul\":529:530   */\n      0x00\n        /* \"#utility.yul\":526:527   */\n      dup1\n        /* \"#utility.yul\":519:531   */\n      revert\n        /* \"#utility.yul\":470:533   */\n    tag_52:\n        /* \"#utility.yul\":417:539   */\n      pop\n      jump\t// out\n        /* \"#utility.yul\":545:684   */\n    tag_35:\n        /* \"#utility.yul\":591:596   */\n      0x00\n        /* \"#utility.yul\":629:635   */\n      dup2\n        /* \"#utility.yul\":616:636   */\n      calldataload\n        /* \"#utility.yul\":607:636   */\n      swap1\n      pop\n        /* \"#utility.yul\":645:678   */\n      tag_54\n        /* \"#utility.yul\":672:677   */\n      dup2\n        /* \"#utility.yul\":645:678   */\n      tag_34\n      jump\t// in\n    tag_54:\n        /* \"#utility.yul\":545:684   */\n      swap3\n      swap2\n      pop\n      pop\n      jump\t// out\n        /* \"#utility.yul\":690:1019   */\n    tag_10:\n        /* \"#utility.yul\":749:755   */\n      0x00\n        /* \"#utility.yul\":798:800   */\n      0x20\n        /* \"#utility.yul\":786:795   */\n      dup3\n        /* \"#utility.yul\":777:784   */\n      dup5\n        /* \"#utility.yul\":773:796   */\n      sub\n        /* \"#utility.yul\":769:801   */\n      slt\n        /* \"#utility.yul\":766:885   */\n      iszero\n      tag_56\n      jumpi\n        /* \"#utility.yul\":804:883   */\n      tag_57\n      tag_31\n      jump\t// in\n    tag_57:\n        /* \"#utility.yul\":766:885   */\n    tag_56:\n        /* \"#utility.yul\":924:925   */\n      0x00\n        /* \"#utility.yul\":949:1002   */\n      tag_58\n        /* \"#utility.yul\":994:1001   */\n      dup5\n        /* \"#utility.yul\":985:991   */\n      dup3\n        /* \"#utility.yul\":974:983   */\n      dup6\n        /* \"#utility.yul\":970:992   */\n      add\n        /* \"#utility.yul\":949:1002   */\n      tag_35\n      jump\t// in\n    tag_58:\n        /* \"#utility.yul\":939:1002   */\n      swap2\n      pop\n        /* \"#utility.yul\":895:1012   */\n      pop\n        /* \"#utility.yul\":690:1019   */\n      swap3\n      swap2\n      pop\n      pop\n      jump\t// out\n        /* \"#utility.yul\":1025:1143   */\n    tag_36:\n        /* \"#utility.yul\":1112:1136   */\n      tag_60\n        /* \"#utility.yul\":1130:1135   */\n      dup2\n        /* \"#utility.yul\":1112:1136   */\n      tag_33\n      jump\t// in\n    tag_60:\n        /* \"#utility.yul\":1107:1110   */\n      dup3\n        /* \"#utility.yul\":1100:1137   */\n      mstore\n        /* \"#utility.yul\":1025:1143   */\n      pop\n      pop\n      jump\t// out\n        /* \"#utility.yul\":1149:1371   */\n    tag_16:\n        /* \"#utility.yul\":1242:1246   */\n      0x00\n        /* \"#utility.yul\":1280:1282   */\n      0x20\n        /* \"#utility.yul\":1269:1278   */\n      dup3\n        /* \"#utility.yul\":1265:1283   */\n      add\n        /* \"#utility.yul\":1257:1283   */\n      swap1\n      pop\n        /* \"#utility.yul\":1293:1364   */\n      tag_62\n        /* \"#utility.yul\":1361:1362   */\n      0x00\n        /* \"#utility.yul\":1350:1359   */\n      dup4\n        /* \"#utility.yul\":1346:1363   */\n      add\n        /* \"#utility.yul\":1337:1343   */\n      dup5\n        /* \"#utility.yul\":1293:1364   */\n      tag_36\n      jump\t// in\n    tag_62:\n        /* \"#utility.yul\":1149:1371   */\n      swap3\n      swap2\n      pop\n      pop\n      jump\t// out\n        /* \"#utility.yul\":1377:1546   */\n    tag_37:\n        /* \"#utility.yul\":1461:1472   */\n      0x00\n        /* \"#utility.yul\":1495:1501   */\n      dup3\n        /* \"#utility.yul\":1490:1493   */\n      dup3\n        /* \"#utility.yul\":1483:1502   */\n      mstore\n        /* \"#utility.yul\":1535:1539   */\n      0x20\n        /* \"#utility.yul\":1530:1533   */\n      dup3\n        /* \"#utility.yul\":1526:1540   */\n      add\n        /* \"#utility.yul\":1511:1540   */\n      swap1\n      pop\n        /* \"#utility.yul\":1377:1546   */\n      swap3\n      swap2\n      pop\n      pop\n      jump\t// out\n        /* \"#utility.yul\":1552:1772   */\n    tag_38:\n        /* \"#utility.yul\":1692:1726   */\n      0x576974686472617720616d6f756e74206578636565647320746865206c696d69\n        /* \"#utility.yul\":1688:1689   */\n      0x00\n        /* \"#utility.yul\":1680:1686   */\n      dup3\n        /* \"#utility.yul\":1676:1690   */\n      add\n        /* \"#utility.yul\":1669:1727   */\n      mstore\n        /* \"#utility.yul\":1761:1764   */\n      0x7400000000000000000000000000000000000000000000000000000000000000\n        /* \"#utility.yul\":1756:1758   */\n      0x20\n        /* \"#utility.yul\":1748:1754   */\n      dup3\n        /* \"#utility.yul\":1744:1759   */\n      add\n        /* \"#utility.yul\":1737:1765   */\n      mstore\n        /* \"#utility.yul\":1552:1772   */\n      pop\n      jump\t// out\n        /* \"#utility.yul\":1778:2144   */\n    tag_39:\n        /* \"#utility.yul\":1920:1923   */\n      0x00\n        /* \"#utility.yul\":1941:2008   */\n      tag_66\n        /* \"#utility.yul\":2005:2007   */\n      0x21\n        /* \"#utility.yul\":2000:2003   */\n      dup4\n        /* \"#utility.yul\":1941:2008   */\n      tag_37\n      jump\t// in\n    tag_66:\n        /* \"#utility.yul\":1934:2008   */\n      swap2\n      pop\n        /* \"#utility.yul\":2017:2110   */\n      tag_67\n        /* \"#utility.yul\":2106:2109   */\n      dup3\n        /* \"#utility.yul\":2017:2110   */\n      tag_38\n      jump\t// in\n    tag_67:\n        /* \"#utility.yul\":2135:2137   */\n      0x40\n        /* \"#utility.yul\":2130:2133   */\n      dup3\n        /* \"#utility.yul\":2126:2138   */\n      add\n        /* \"#utility.yul\":2119:2138   */\n      swap1\n      pop\n        /* \"#utility.yul\":1778:2144   */\n      swap2\n      swap1\n      pop\n      jump\t// out\n        /* \"#utility.yul\":2150:2569   */\n    tag_20:\n        /* \"#utility.yul\":2316:2320   */\n      0x00\n        /* \"#utility.yul\":2354:2356   */\n      0x20\n        /* \"#utility.yul\":2343:2352   */\n      dup3\n        /* \"#utility.yul\":2339:2357   */\n      add\n        /* \"#utility.yul\":2331:2357   */\n      swap1\n      pop\n        /* \"#utility.yul\":2403:2412   */\n      dup2\n        /* \"#utility.yul\":2397:2401   */\n      dup2\n        /* \"#utility.yul\":2393:2413   */\n      sub\n        /* \"#utility.yul\":2389:2390   */\n      0x00\n        /* \"#utility.yul\":2378:2387   */\n      dup4\n        /* \"#utility.yul\":2374:2391   */\n      add\n        /* \"#utility.yul\":2367:2414   */\n      mstore\n        /* \"#utility.yul\":2431:2562   */\n      tag_69\n        /* \"#utility.yul\":2557:2561   */\n      dup2\n        /* \"#utility.yul\":2431:2562   */\n      tag_39\n      jump\t// in\n    tag_69:\n        /* \"#utility.yul\":2423:2562   */\n      swap1\n      pop\n        /* \"#utility.yul\":2150:2569   */\n      swap2\n      swap1\n      pop\n      jump\t// out\n        /* \"#utility.yul\":2575:2754   */\n    tag_40:\n        /* \"#utility.yul\":2715:2746   */\n      0x46617563657420656d7074792c2074727920616761696e206c61746572000000\n        /* \"#utility.yul\":2711:2712   */\n      0x00\n        /* \"#utility.yul\":2703:2709   */\n      dup3\n        /* \"#utility.yul\":2699:2713   */\n      add\n        /* \"#utility.yul\":2692:2747   */\n      mstore\n        /* \"#utility.yul\":2575:2754   */\n      pop\n      jump\t// out\n        /* \"#utility.yul\":2760:3126   */\n    tag_41:\n        /* \"#utility.yul\":2902:2905   */\n      0x00\n        /* \"#utility.yul\":2923:2990   */\n      tag_72\n        /* \"#utility.yul\":2987:2989   */\n      0x1d\n        /* \"#utility.yul\":2982:2985   */\n      dup4\n        /* \"#utility.yul\":2923:2990   */\n      tag_37\n      jump\t// in\n    tag_72:\n        /* \"#utility.yul\":2916:2990   */\n      swap2\n      pop\n        /* \"#utility.yul\":2999:3092   */\n      tag_73\n        /* \"#utility.yul\":3088:3091   */\n      dup3\n        /* \"#utility.yul\":2999:3092   */\n      tag_40\n      jump\t// in\n    tag_73:\n        /* \"#utility.yul\":3117:3119   */\n      0x20\n        /* \"#utility.yul\":3112:3115   */\n      dup3\n        /* \"#utility.yul\":3108:3120   */\n      add\n        /* \"#utility.yul\":3101:3120   */\n      swap1\n      pop\n        /* \"#utility.yul\":2760:3126   */\n      swap2\n      swap1\n      pop\n      jump\t// out\n        /* \"#utility.yul\":3132:3551   */\n    tag_23:\n        /* \"#utility.yul\":3298:3302   */\n      0x00\n        /* \"#utility.yul\":3336:3338   */\n      0x20\n        /* \"#utility.yul\":3325:3334   */\n      dup3\n        /* \"#utility.yul\":3321:3339   */\n      add\n        /* \"#utility.yul\":3313:3339   */\n      swap1\n      pop\n        /* \"#utility.yul\":3385:3394   */\n      dup2\n        /* \"#utility.yul\":3379:3383   */\n      dup2\n        /* \"#utility.yul\":3375:3395   */\n      sub\n        /* \"#utility.yul\":3371:3372   */\n      0x00\n        /* \"#utility.yul\":3360:3369   */\n      dup4\n        /* \"#utility.yul\":3356:3373   */\n      add\n        /* \"#utility.yul\":3349:3396   */\n      mstore\n        /* \"#utility.yul\":3413:3544   */\n      tag_75\n        /* \"#utility.yul\":3539:3543   */\n      dup2\n        /* \"#utility.yul\":3413:3544   */\n      tag_41\n      jump\t// in\n    tag_75:\n        /* \"#utility.yul\":3405:3544   */\n      swap1\n      pop\n        /* \"#utility.yul\":3132:3551   */\n      swap2\n      swap1\n      pop\n      jump\t// out\n        /* \"#utility.yul\":3557:3704   */\n    tag_42:\n        /* \"#utility.yul\":3658:3669   */\n      0x00\n        /* \"#utility.yul\":3695:3698   */\n      dup2\n        /* \"#utility.yul\":3680:3698   */\n      swap1\n      pop\n        /* \"#utility.yul\":3557:3704   */\n      swap3\n      swap2\n      pop\n      pop\n      jump\t// out\n        /* \"#utility.yul\":3710:3824   */\n    tag_43:\n      pop\n      jump\t// out\n        /* \"#utility.yul\":3830:4228   */\n    tag_44:\n        /* \"#utility.yul\":3989:3992   */\n      0x00\n        /* \"#utility.yul\":4010:4093   */\n      tag_79\n        /* \"#utility.yul\":4091:4092   */\n      0x00\n        /* \"#utility.yul\":4086:4089   */\n      dup4\n        /* \"#utility.yul\":4010:4093   */\n      tag_42\n      jump\t// in\n    tag_79:\n        /* \"#utility.yul\":4003:4093   */\n      swap2\n      pop\n        /* \"#utility.yul\":4102:4195   */\n      tag_80\n        /* \"#utility.yul\":4191:4194   */\n      dup3\n        /* \"#utility.yul\":4102:4195   */\n      tag_43\n      jump\t// in\n    tag_80:\n        /* \"#utility.yul\":4220:4221   */\n      0x00\n        /* \"#utility.yul\":4215:4218   */\n      dup3\n        /* \"#utility.yul\":4211:4222   */\n      add\n        /* \"#utility.yul\":4204:4222   */\n      swap1\n      pop\n        /* \"#utility.yul\":3830:4228   */\n      swap2\n      swap1\n      pop\n      jump\t// out\n        /* \"#utility.yul\":4234:4613   */\n    tag_25:\n        /* \"#utility.yul\":4418:4421   */\n      0x00\n        /* \"#utility.yul\":4440:4587   */\n      tag_82\n        /* \"#utility.yul\":4583:4586   */\n      dup3\n        /* \"#utility.yul\":4440:4587   */\n      tag_44\n      jump\t// in\n    tag_82:\n        /* \"#utility.yul\":4433:4587   */\n      swap2\n      pop\n        /* \"#utility.yul\":4604:4607   */\n      dup2\n        /* \"#utility.yul\":4597:4607   */\n      swap1\n      pop\n        /* \"#utility.yul\":4234:4613   */\n      swap2\n      swap1\n      pop\n      jump\t// out\n\n    auxdata: 0xa2646970667358221220af35be1cca90b6d06ed33b6f65b724f97e0f877ede62d160f19d4cbba76a728c64736f6c634300081a0033\n}\n",
				"bytecode": {
					"linkReferences": {},
					"object": "6080604052348015600e575f80fd5b5061038e8061001c5f395ff3fe60806040526004361061002c575f3560e01c80632e1a7d4d14610037578063f1f959a61461005f57610033565b3661003357005b5f80fd5b348015610042575f80fd5b5061005d600480360381019061005891906101be565b610089565b005b34801561006a575f80fd5b50610073610180565b60405161008091906101f8565b60405180910390f35b67016345785d8a00008111156100d4576040517f08c379a00000000000000000000000000000000000000000000000000000000081526004016100cb90610291565b60405180910390fd5b80471015610117576040517f08c379a000000000000000000000000000000000000000000000000000000000815260040161010e906102f9565b60405180910390fd5b3373ffffffffffffffffffffffffffffffffffffffff168160405161013b90610344565b5f6040518083038185875af1925050503d805f8114610175576040519150601f19603f3d011682016040523d82523d5f602084013e61017a565b606091505b50505050565b5f47905090565b5f80fd5b5f819050919050565b61019d8161018b565b81146101a7575f80fd5b50565b5f813590506101b881610194565b92915050565b5f602082840312156101d3576101d2610187565b5b5f6101e0848285016101aa565b91505092915050565b6101f28161018b565b82525050565b5f60208201905061020b5f8301846101e9565b92915050565b5f82825260208201905092915050565b7f576974686472617720616d6f756e74206578636565647320746865206c696d695f8201527f7400000000000000000000000000000000000000000000000000000000000000602082015250565b5f61027b602183610211565b915061028682610221565b604082019050919050565b5f6020820190508181035f8301526102a88161026f565b9050919050565b7f46617563657420656d7074792c2074727920616761696e206c617465720000005f82015250565b5f6102e3601d83610211565b91506102ee826102af565b602082019050919050565b5f6020820190508181035f830152610310816102d7565b9050919050565b5f81905092915050565b50565b5f61032f5f83610317565b915061033a82610321565b5f82019050919050565b5f61034e82610324565b915081905091905056fea2646970667358221220af35be1cca90b6d06ed33b6f65b724f97e0f877ede62d160f19d4cbba76a728c64736f6c634300081a0033",
					"opcodes": "PUSH1 0x80 PUSH1 0x40 MSTORE CALLVALUE DUP1 ISZERO PUSH1 0xE JUMPI PUSH0 DUP1 REVERT JUMPDEST POP PUSH2 0x38E DUP1 PUSH2 0x1C PUSH0 CODECOPY PUSH0 RETURN INVALID PUSH1 0x80 PUSH1 0x40 MSTORE PUSH1 0x4 CALLDATASIZE LT PUSH2 0x2C JUMPI PUSH0 CALLDATALOAD PUSH1 0xE0 SHR DUP1 PUSH4 0x2E1A7D4D EQ PUSH2 0x37 JUMPI DUP1 PUSH4 0xF1F959A6 EQ PUSH2 0x5F JUMPI PUSH2 0x33 JUMP JUMPDEST CALLDATASIZE PUSH2 0x33 JUMPI STOP JUMPDEST PUSH0 DUP1 REVERT JUMPDEST CALLVALUE DUP1 ISZERO PUSH2 0x42 JUMPI PUSH0 DUP1 REVERT JUMPDEST POP PUSH2 0x5D PUSH1 0x4 DUP1 CALLDATASIZE SUB DUP2 ADD SWAP1 PUSH2 0x58 SWAP2 SWAP1 PUSH2 0x1BE JUMP JUMPDEST PUSH2 0x89 JUMP JUMPDEST STOP JUMPDEST CALLVALUE DUP1 ISZERO PUSH2 0x6A JUMPI PUSH0 DUP1 REVERT JUMPDEST POP PUSH2 0x73 PUSH2 0x180 JUMP JUMPDEST PUSH1 0x40 MLOAD PUSH2 0x80 SWAP2 SWAP1 PUSH2 0x1F8 JUMP JUMPDEST PUSH1 0x40 MLOAD DUP1 SWAP2 SUB SWAP1 RETURN JUMPDEST PUSH8 0x16345785D8A0000 DUP2 GT ISZERO PUSH2 0xD4 JUMPI PUSH1 0x40 MLOAD PUSH32 0x8C379A000000000000000000000000000000000000000000000000000000000 DUP2 MSTORE PUSH1 0x4 ADD PUSH2 0xCB SWAP1 PUSH2 0x291 JUMP JUMPDEST PUSH1 0x40 MLOAD DUP1 SWAP2 SUB SWAP1 REVERT JUMPDEST DUP1 SELFBALANCE LT ISZERO PUSH2 0x117 JUMPI PUSH1 0x40 MLOAD PUSH32 0x8C379A000000000000000000000000000000000000000000000000000000000 DUP2 MSTORE PUSH1 0x4 ADD PUSH2 0x10E SWAP1 PUSH2 0x2F9 JUMP JUMPDEST PUSH1 0x40 MLOAD DUP1 SWAP2 SUB SWAP1 REVERT JUMPDEST CALLER PUSH20 0xFFFFFFFFFFFFFFFFFFFFFFFFFFFFFFFFFFFFFFFF AND DUP2 PUSH1 0x40 MLOAD PUSH2 0x13B SWAP1 PUSH2 0x344 JUMP JUMPDEST PUSH0 PUSH1 0x40 MLOAD DUP1 DUP4 SUB DUP2 DUP6 DUP8 GAS CALL SWAP3 POP POP POP RETURNDATASIZE DUP1 PUSH0 DUP2 EQ PUSH2 0x175 JUMPI PUSH1 0x40 MLOAD SWAP2 POP PUSH1 0x1F NOT PUSH1 0x3F RETURNDATASIZE ADD AND DUP3 ADD PUSH1 0x40 MSTORE RETURNDATASIZE DUP3 MSTORE RETURNDATASIZE PUSH0 PUSH1 0x20 DUP5 ADD RETURNDATACOPY PUSH2 0x17A JUMP JUMPDEST PUSH1 0x60 SWAP2 POP JUMPDEST POP POP POP POP JUMP JUMPDEST PUSH0 SELFBALANCE SWAP1 POP SWAP1 JUMP JUMPDEST PUSH0 DUP1 REVERT JUMPDEST PUSH0 DUP2 SWAP1 POP SWAP2 SWAP1 POP JUMP JUMPDEST PUSH2 0x19D DUP2 PUSH2 0x18B JUMP JUMPDEST DUP2 EQ PUSH2 0x1A7 JUMPI PUSH0 DUP1 REVERT JUMPDEST POP JUMP JUMPDEST PUSH0 DUP2 CALLDATALOAD SWAP1 POP PUSH2 0x1B8 DUP2 PUSH2 0x194 JUMP JUMPDEST SWAP3 SWAP2 POP POP JUMP JUMPDEST PUSH0 PUSH1 0x20 DUP3 DUP5 SUB SLT ISZERO PUSH2 0x1D3 JUMPI PUSH2 0x1D2 PUSH2 0x187 JUMP JUMPDEST JUMPDEST PUSH0 PUSH2 0x1E0 DUP5 DUP3 DUP6 ADD PUSH2 0x1AA JUMP JUMPDEST SWAP2 POP POP SWAP3 SWAP2 POP POP JUMP JUMPDEST PUSH2 0x1F2 DUP2 PUSH2 0x18B JUMP JUMPDEST DUP3 MSTORE POP POP JUMP JUMPDEST PUSH0 PUSH1 0x20 DUP3 ADD SWAP1 POP PUSH2 0x20B PUSH0 DUP4 ADD DUP5 PUSH2 0x1E9 JUMP JUMPDEST SWAP3 SWAP2 POP POP JUMP JUMPDEST PUSH0 DUP3 DUP3 MSTORE PUSH1 0x20 DUP3 ADD SWAP1 POP SWAP3 SWAP2 POP POP JUMP JUMPDEST PUSH32 0x576974686472617720616D6F756E74206578636565647320746865206C696D69 PUSH0 DUP3 ADD MSTORE PUSH32 0x7400000000000000000000000000000000000000000000000000000000000000 PUSH1 0x20 DUP3 ADD MSTORE POP JUMP JUMPDEST PUSH0 PUSH2 0x27B PUSH1 0x21 DUP4 PUSH2 0x211 JUMP JUMPDEST SWAP2 POP PUSH2 0x286 DUP3 PUSH2 0x221 JUMP JUMPDEST PUSH1 0x40 DUP3 ADD SWAP1 POP SWAP2 SWAP1 POP JUMP JUMPDEST PUSH0 PUSH1 0x20 DUP3 ADD SWAP1 POP DUP2 DUP2 SUB PUSH0 DUP4 ADD MSTORE PUSH2 0x2A8 DUP2 PUSH2 0x26F JUMP JUMPDEST SWAP1 POP SWAP2 SWAP1 POP JUMP JUMPDEST PUSH32 0x46617563657420656D7074792C2074727920616761696E206C61746572000000 PUSH0 DUP3 ADD MSTORE POP JUMP JUMPDEST PUSH0 PUSH2 0x2E3 PUSH1 0x1D DUP4 PUSH2 0x211 JUMP JUMPDEST SWAP2 POP PUSH2 0x2EE DUP3 PUSH2 0x2AF JUMP JUMPDEST PUSH1 0x20 DUP3 ADD SWAP1 POP SWAP2 SWAP1 POP JUMP JUMPDEST PUSH0 PUSH1 0x20 DUP3 ADD SWAP1 POP DUP2 DUP2 SUB PUSH0 DUP4 ADD MSTORE PUSH2 0x310 DUP2 PUSH2 0x2D7 JUMP JUMPDEST SWAP1 POP SWAP2 SWAP1 POP JUMP JUMPDEST PUSH0 DUP2 SWAP1 POP SWAP3 SWAP2 POP POP JUMP JUMPDEST POP JUMP JUMPDEST PUSH0 PUSH2 0x32F PUSH0 DUP4 PUSH2 0x317 JUMP JUMPDEST SWAP2 POP PUSH2 0x33A DUP3 PUSH2 0x321 JUMP JUMPDEST PUSH0 DUP3 ADD SWAP1 POP SWAP2 SWAP1 POP JUMP JUMPDEST PUSH0 PUSH2 0x34E DUP3 PUSH2 0x324 JUMP JUMPDEST SWAP2 POP DUP2 SWAP1 POP SWAP2 SWAP1 POP JUMP INVALID LOG2 PUSH5 0x6970667358 0x22 SLT KECCAK256 0xAF CALLDATALOAD 0xBE SHR 0xCA SWAP1 0xB6 0xD0 PUSH15 0xD33B6F65B724F97E0F877EDE62D160 CALL SWAP14 0x4C 0xBB 0xA7 PUSH11 0x728C64736F6C634300081A STOP CALLER "
				},
				"gasEstimates": {
					"creation": {
						"codeDepositCost": "182000",
						"executionCost": "224",
						"totalCost": "182224"
					},
					"external": {
						"getFaucetBalance()": "334",
						"withdraw(uint256)": "infinite"
					}
				},
				"methodIdentifiers": {
					"getFaucetBalance()": "f1f959a6",
					"withdraw(uint256)": "2e1a7d4d"
				}
			},
			"storageLayout": {
				"storage": [],
				"types": null
			},
			"userdoc": {
				"kind": "user",
				"methods": {},
				"version": 1
			}
		}
	}
}